:020000040800F2
:10000000A84B04245D040008810400088304000850
:10001000116500088704000889040008000000003A
:10002000000000000000000000000000990300082C
:100030008D04000800000000F5030008596D000859
:100040009304000893040008930400089304000834
:100050009304000893040008930400089304000824
:100060009304000893040008930400089304000814
:100070009304000893040008930400089304000804
:1000800093040008930400089304000893040008F4
:1000900093040008930400089304000893040008E4
:1000A00093040008930400089304000893040008D4
:1000B0009304000893040008B96F00089304000833
:1000C00093040008930400089304000893040008B4
:1000D000930400089D7F000893040008930400081F
:1000E0009304000893040008000000009304000833
:1000F0009304000893040008930400089304000884
:100100009304000893040008930400089304000873
:100110009304000893040008930400089304000863
:100120009304000893040008930400089304000853
:100130009304000893040008930400089304000843
:1001400000000000000000000000000000000000AF
:100150009304000893040008930400089304000823
:100160009304000893040008930400089304000813
:1001700093040008930400089304000800000000A2
:1001800093040008930400089304000893040008F3
:1001900093040008930400089304000893040008E3
:1001A00093040008930400089304000893040008D3
:1001B00093040008930400089304000893040008C3
:1001C00093040008930400089304000893040008B3
:1001D00093040008930400089304000893040008A3
:1001E0009304000893040008930400089304000893
:1001F0009304000893040008930400089304000883
:100200009304000893040008930400089304000872
:100210009304000893040008930400089304000862
:1002200093040008930400089304000800000000F1
:1002300093040008930400080000000093040008E1
:100240009304000893040008930400089304000832
:100250009304000893040008930400089304000822
:100260009304000893040008930400089304000812
:1002700093040008930400089304000800000000A1
:100280009304000800000000930400080000000030
:10029000000000009304000800F002F800F06DF880
:1002A0000AA090E8000C82448344AAF10107DA45D1
:1002B00001D100F062F8AFF2090EBAE80F0013F0B6
:1002C000010F18BFFB1A43F001031847E075060041
:1002D000007606000A444FF0000C10F8013B13F0C2
:1002E000070408BF10F8014B1D1108BF10F8015B8F
:1002F000641E05D010F8016B641E01F8016BF9D182
:1003000013F0080F1EBF10F8014BAD1C0C1B09D1D8
:100310006D1E58BF01F801CBFAD505E014F8016B4A
:1003200001F8016B6D1EF9D59142D6D370470000DC
:100330000023002400250026103A28BF78C1FBD8EE
:10034000520728BF30C148BF0B607047642900F0D6
:10035000AB81752900F0A881782900F0E18163293B
:1003600000F05484732900F05984002070471FB5B1
:1003700046F073FB1FBD10B510BD00F071FC1146B7
:10038000FFF7F5FF34F096FD00F08FFC03B4FFF7A4
:10039000F2FF03BC08F045F92D4B19680868B0E876
:1003A000F04F80F30988BFF36F8F4FF0000080F3A8
:1003B000118870470000000008480068006880F35A
:1003C00008884FF0000080F3148862B661B6BFF36E
:1003D0004F8FBFF36F8F00DF00BF00BF08ED00E05D
:1003E000DFF80C00016841F470010160704700BF44
:1003F00088ED00E0EFF30980BFF36F8F144B1A68AC
:100400001EF0100F08BF20ED108A20E9F04F106099
:1004100009B44FF0500072B680F31188BFF34F8FCC
:10042000BFF36F8F62B645F04BF84FF0000080F3DA
:10043000118809BC19680868B0E8F04F1EF0100F69
:1004400008BFB0EC108A80F30988BFF36F8F704744
:10045000F4010024EFF3058070470000DFF840004E
:10046000016841F470010160BFF34F8FDFF8340081
:10047000016821F040410160BFF36F8F0A480047D7
:10048000FEE7FEE7FEE7FEE7FEE7FEE7FEE7FEE744
:10049000FEE7FEE705480649044A064B70470000A0
:1004A00088ED00E034EF00E099020008A84304243E
:1004B000A84B0424A8430424704753EA020C00F01C
:1004C00069802DE9F04B4FF00006002B1FBFB3FAF7
:1004D00083F503FA05F424FA05F65E4012BF1643CD
:1004E000B2FA82F502FA05F4C5F120051EBF22FA20
:1004F00005FC44EA0C04203556EA044C4FEA144447
:1005000018BF641C4FF000084FF00009904271EBD7
:10051000030C39D3002919BFB1FA81F701FA07F6A4
:10052000B0FA80F700FA07F6C7F120071EBF20FADD
:1005300007FC46EA0C062037B6FBF4FCA7EB0507E0
:10054000103F07F01F0BCBF120060CFA0BFB2CFA27
:1005500006F644BFB3460026202FA4BF5E464FF0E8
:10056000000B5BEA060C08BF4FF0010B19EB0B09FF
:10057000ABFB027C48EB0608C01B06FB02CC0BFB66
:1005800003CC71EB0C01C1E70B46024641464846DD
:10059000BDE8F08B13B54FF000004FF00001AFF352
:1005A0000080BDE81C40704710B54C1084EA53042D
:1005B00004D54042C1F1000138BF491E1B4204D599
:1005C0005242C3F1000338BF5B1EFFF776FF14F001
:1005D000804F04D04042C1F1000138BF491E14F0E1
:1005E000004F04D05242C3F1000338BF5B1E10BD60
:1005F0000FB4044910B503AA029800F013FB10BC15
:100600005DF814FB1000002470B50446856900688D
:10061000C10601D5302600E02026C00707D070BDF6
:10062000D4E9012130469047206A401C20626D1EAB
:10063000F6D570BD70B5044685690078C00707D14E
:1006400070BDD4E9012120209047206A401C20621F
:100650006D1EF6D570BD70B50C460546012A05D055
:100660002878800600D5EA69002302E0012305E02E
:100670005B1C934202D2E05C0028F9D1A869E6181D
:10068000C01AA861286A184428622846FFF7BCFFF0
:1006900004E0D5E9012114F8010B9047B442F8D3E6
:1006A0002846FFF7C7FF70BD2DE9F041064600243C
:1006B00010687529314616A510D0AFF300800028C8
:1006C00002DA404213A507E031688A0701D512A576
:1006D00002E0490704D511A5012401E0AFF3008031
:1006E00000210A2206F1240709E0B0FBF2FCB0FB6E
:1006F000F2F302FB1C00303078541846491C0028E5
:10070000F3D123462A463046BDE8F04100F003BA53
:10071000000000002D0000002B0000002000000061
:1007200070B504460D4621461068AFF3008021885D
:10073000090502D50F4A7A4402E00E4A7A440E3285
:10074000002104F1240305E000F00F060009965D86
:100750005E54491C0028F7D120780023000704D5F7
:10076000702D02D009B1022311322046BDE870403D
:1007700000F0D1B95E6806002DE9F05F89460446B5
:100780004FF0000ADFF874B1FB44C0F820A0204607
:10079000E1688847002874D0252806D0D4E90121D3
:1007A0009047206A401C2062F1E700265F46204601
:1007B000E16888472028054607DB312D05D27819E6
:1007C00010F8200C08B10643F1E7B00701D526F078
:1007D0000406C4F81CA00027C4F818A02A2D09D0CC
:1007E000284607F0B1FD38B304EB8708303DC8F860
:1007F000185019E059F8041B204604EB8702916158
:10080000E1688847012F054618D1E069002820DA01
:1008100026F020061DE0D8F8180000EB800005EB5C
:1008200040003038C8F818002046E168884705467F
:1008300007F08AFD0028EED1012F0AD02E2D08D115
:100840002046E16888477F1C0546022F46F02006B7
:10085000C4DBA069002803DA404246F00106A0612B
:10086000F00701D026F010066C2D0BD0682D09D0B2
:100870004C2D39D06A2D35D0742D35D07A2D33D00A
:1008800016E038E0E1682F4620468847B842054622
:1008900009D16C2F26D04FF48060E16806432046D2
:1008A0008847054604E06C2F1AD04FF48070064349
:1008B0000DB3A5F14100192802D8203546F4006691
:1008C0004A462946204626604E46FFF73FFD80B146
:1008D00001280BD0F61D26F0070000F1080956E7A5
:1008E0004020E4E78020D8E70020D6E706F104099D
:1008F0004DE7284652E7206ABDE8F09F34680600BD
:10090000032A40F2308010F0030C00F0158011F83B
:10091000013BBCF1020F624498BF11F801CB00F813
:10092000013B38BF11F8013BA2F1040298BF00F867
:1009300001CB38BF00F8013B11F0030300F0258024
:10094000083AC0F0088051F8043B083A51F804CB4B
:10095000A0E80810F5E7121D5CBF51F8043B40F811
:10096000043BAFF30080D20724BF11F8013B11F81C
:1009700001CB48BF11F8012B24BF00F8013B00F860
:1009800001CB48BF00F8012B704710B5203AC0F0EA
:100990000B80B1E81850203AA0E81850B1E8185080
:1009A000A0E81850BFF4F5AF5FEA027C24BFB1E8BD
:1009B0001850A0E8185044BF18C918C0BDE810402E
:1009C0005FEA827C24BF51F8043B40F8043B08BF37
:1009D0007047D20728BF31F8023B48BF11F8012BFE
:1009E00028BF20F8023B48BF00F8012B704702F0F7
:1009F000FF0343EA032242EA024200F002B84FF04A
:100A000000020429C0F0128010F0030C00F01B80DB
:100A1000CCF1040CBCF1020F18BF00F8012BA8BFE9
:100A200020F8022BA1EB0C0100F00DB85FEAC17CAD
:100A300024BF00F8012B00F8012B48BF00F8012B60
:100A400070474FF0000200B5134694469646203991
:100A500022BFA0E80C50A0E80C50B1F12001BFF477
:100A6000F7AF090728BFA0E80C5048BF0CC05DF8DD
:100A700004EB890028BF40F8042B08BF704748BF2B
:100A800020F8022B11F0804F18BF00F8012B70479F
:100A90004FF0013C50F8042B51F8043B9A4215D119
:100AA000A2EB0C03934313EACC130BD150F8042BA5
:100AB00051F8043B9A4209D1A2EB0C03934313EA89
:100AC000CC13E7D04FF00000704700BFD01A01BA36
:100AD000B1FA81F101F0180122FA01F0CB40C1F125
:100AE0002001DBB2C0B2C01A2CFA01F3D11A914333
:100AF00011EAC311E6D170477047704770477047DD
:100B000010B500F0A1F8006810BD10B5044600F063
:100B10009BF8046010BD2DE9F0470D4699469246BA
:100B2000044600F124080168880604D5E06921F034
:100B30001001216000E00120A84201DD471B00E018
:100B40000027A1697A1902EB0900081AA061207830
:100B5000C00602D42046FFF757FD002608E0D4E97E
:100B600001211AF806009047206A401C761C20627A
:100B70004E45F4DB2078C0060AD52046FFF744FD39
:100B800006E0D4E9012130209047206A401C206211
:100B9000381EA7F10107F4DC07E0D4E9012118F8B9
:100BA00005009047206A401C2062281EA5F101051F
:100BB000F3DC2046FFF73EFD2078000602D5022038
:100BC000BDE8F0870120FBE701694A1C0261087853
:100BD000704700B58FB0CDE901310021059105497D
:100BE0007944CDE9031011466846FFF7C5FD0FB003
:100BF00000BD0000E5FFFFFF10B5436913B1AFF37F
:100C0000008001E0FFF727FD012010BD127800F100
:100C100024010A7000224A700122EDE711684FF0AA
:100C2000FF32E9E7074B70B50D467B44FFF7D1FF74
:100C30000446284600F00CF810B14FF0FF3070BDAC
:100C4000204670BDEF13010000487047484304245C
:100C5000007B00F080007047004870474843042440
:100C60007546FFF7F9FFAE4605006946534620F08A
:100C70000700854618B020B5FFF70CFCBDE8204002
:100C80004FF000064FF000074FF000084FF0000B48
:100C900021F00701AC46ACE8C009ACE8C009ACE8FB
:100CA000C009ACE8C0098D46704710B50446AFF3E3
:100CB00000802046BDE81040FFF768BB10B5022059
:100CC0000CF0FCF810BD000010B5002208210D4802
:100CD00000F015FCFFF7F2FF012240210A4800F066
:100CE0000EFCFFF7EBFF00224021074800F007FC55
:100CF000FFF7E4FF01220821024800F000FCFFF7A3
:100D0000DDFF10BD00200258001C02581CB514481D
:100D1000006840F08000124908600846006840F40E
:100D20008070086001200090034602464021019037
:100D30000C4800F0EBFB012000900346024608211E
:100D40000190094800F0E2FB01220821064800F06A
:100D5000D6FB01224021034800F0D1FB1CBD00005E
:100D6000E0440258001C02580020025810B501222D
:100D700008210A4800F0C3FBFFF7A0FF0122402131
:100D8000074800F0BCFBFFF799FF00224021044810
:100D900000F0B5FBFFF792FF10BD000000200258E5
:100DA000001C025870B505460024002618E06006B5
:100DB000040E012240210F4800F0A1FBFFF77EFF47
:100DC00008210D4800F093FB08B1601CC4B200225A
:100DD0004021084800F093FBFFF770FF701CC6B27B
:100DE000082EE4DB15B9FFF7C1FF01E0FFF76CFF48
:100DF000204670BD001C02580020025870B5044601
:100E0000002516E0E20908210E4800F078FBFFF704
:100E100055FF012240210C4800F071FBFFF74EFF07
:100E200000224021084800F06AFB6006040E681C9E
:100E3000C5B2082DE6DB01220821024800F05FFB65
:100E400070BD000000200258001C025810B501229D
:100E500008210C4800F053FB012240210A4800F011
:100E60004EFBFFF72BFF00220821064800F047FB4E
:100E7000FFF724FF00224021034800F040FBFFF76A
:100E80001DFF10BD00200258001C025810B50022A2
:100E900008210A4800F033FBFFF710FF0122402130
:100EA000074800F02CFBFFF709FF01220821034847
:100EB00000F025FBFFF702FF10BD000000200258E4
:100EC000001C025870B50024002501220821134897
:100ED00000F015FBFFF7F2FE01224021104800F060
:100EE0000EFBFFF7EBFE09E0601CC4B2FA2C03DD39
:100EF000FFF7CCFF012507E0FFF7E0FE08210748D8
:100F000000F0F5FA0028EFD100BF0022402104488C
:100F100000F0F5FAFFF7D2FE284670BD0020025817
:100F2000001C025810B505F0F1FC05F0A1FC0348C7
:100F3000006840F004000149086010BD9CEF00E02B
:100F40001FB501244D48006840F080004B490860FF
:100F50000846006840F480700860012000210B46BC
:100F60000A46CDE900108021454800F0CFFA012063
:100F700000900023024601020190424800F0C6FAA8
:100F8000FFF7C4FE002221023E4800F0B8FA142008
:100F90000BF072FF012211023A4800F0B0FA322041
:100FA0000BF06AFF00208DF80800022202A9A120A0
:100FB00000F078F89DF80800302803D19DF809006A
:100FC000032807D09DF80900012803D09DF80900E7
:100FD000022824D19DF809009DF8082000EB022189
:100FE00029A0FFF705FB012202A9002000F036FA34
:100FF000012202A9A42000F031FA16208DF8080081
:10100000012202A9802000F029FA0C208DF80800A6
:10101000012202A9882000F021FA00242BE00422FA
:1010200002A948F2401000F09FFB00208DF80C0050
:1010300002A918A0FFF7DCFA194802990160022002
:101040008DF80800012202A948F2400000F0C0FD1E
:10105000012202A948F2470000F086FB0A200BF0AB
:101060000BFF00208DF80800012202A948F2400081
:1010700000F0AEFD0024204604B010BDE04402584C
:10108000001C0258002002584354502049443A257D
:10109000780D0A004354502049443A25730D0A0044
:1010A0002F0000242DE9F04106460F461546FFF7B4
:1010B000CDFE7020FFF7A2FEFFF704FFF0B2FFF7AE
:1010C0009DFEFFF7FFFEFFF7C1FE7120FFF796FEC2
:1010D000FFF7F8FE00240BE0691EA14201D00121B8
:1010E00000E000210846FFF75DFE3855601CC4B2E1
:1010F000AC42F1DBFFF7CAFEBDE8F08171B583B009
:10110000002001900026CD480078401CCB49087093
:10111000084600780A2190FBF1F201FB120018B199
:10112000C64800780A287DDAC5A1C648FFF7B0FC9A
:10113000D8B9012203A948F24E1000F015FB9DF822
:101140000C0000F08000A8B19DF80C0000F00F002A
:10115000BD49097888420DDC00200190012201A9D7
:1011600048F24E1000F034FD04E0012203A90220F1
:10117000FFF798FF9DF80C0000F00F00002851D0F9
:101180009DF80C0000F00F00AF490978884249DC57
:101190009DF80C0000F00F014FF6FF70884084B2FC
:1011A000AA48858EE04380B240F44040A749888633
:1011B00008468289A4480078401E0C3121F810208E
:1011C000A248028CA0480078401E143121F810205B
:1011D00004200BF051FE00200190AAE09B48808E75
:1011E0009DF8042001219140084000282FD094A1AF
:1011F0009448FFF74DFCE8BB95499DF8042031F871
:101200001200042202A900F0AFFA904890F84400BE
:1012100000F00100E0B19DF808009DF8091000EB16
:10122000012000E0C3E081B288480C309DF8042022
:1012300020F812109DF80A009DF80B1000EB012019
:1012400081B2824820309DF8042020F812106BE013
:101250009DF808009DF8091000EB012081B27B4841
:1012600020309DF8042020F812109DF80A009DF807
:101270000B1000E00CE000EB012076490988081A09
:1012800081B272480C309DF8042020F812104BE017
:1012900071499DF8042031F81200042202A9FFF7D9
:1012A00001FF6A4890F8440000F00100E0B19DF8A9
:1012B00009009DF8081001F00F0100EB01206349BF
:1012C00020319DF8042021F812009DF80B009DF8B4
:1012D0000A1001F00F0100EB01205C490C319DF870
:1012E000042021F812001FE09DF809009DF8081065
:1012F00001F00F0100EB012056490988081A81B25C
:1013000052480C309DF8042020F812109DF80B0074
:101310009DF80A1001F00F0100EB01204B4920312C
:101320009DF8042021F812009DF80400401CC0B272
:1013300001909DF80400444909788842FFF64EAFB9
:1013400001264248808943490988884205DC3F4894
:10135000008C40494988884226DD9DF80C0000F049
:101360000F0001280ADD3948C089384988810846BC
:10137000408C088400203149087018E03248007819
:10138000401E32490C3131F810000C3988812E484A
:101390000078401E203131F8100020390884802068
:1013A00003900846858602E000202449087024A1A5
:1013B0002448FFF76DFBE0B99DF80C0000F08F00AA
:1013C000802831D12148808E00F4004030B11F4880
:1013D000808E20F400401D49888625E04FF6FF707E
:1013E0001A49888108840846808E00F46040888607
:1013F0001AE09DF80C0000F01F00A8B91348808E79
:1014000000F4004030B11148808E20F400400F49B4
:10141000888609E04FF6FF700C49888108840846E9
:10142000808E00F46040888604480078F02802DD51
:101430000A2002490870304604B070BD350000240F
:10144000393131002F0000243400002438000024FA
:10145000AEB10408B4040024A4B104082DE9F0419D
:1014600005460E4617464FF00008FFF7EFFC7020C8
:10147000FFF7C4FCFFF726FDE8B2FFF7BFFCFFF75C
:1014800021FD00240BE0305DFFF7B8FCFFF71AFDEB
:101490008046B8F1000F00D003E0601CC4B2BC422B
:1014A000F1DB00BFFFF7F2FC4046BDE8F08130B54C
:1014B000CC1000F1200353F824304C07E50E0F2424
:1014C000AC40A343CD1000F1200444F82530CC10EB
:1014D00000F1200353F824304C07E40E02FA04F420
:1014E0002343CD1000F1200444F8253030BD0246DE
:1014F0001069084008B1012070470020FCE702F0A5
:1015000001030BB1018300E0418370472DE9F047EF
:101510000C46DDE90867002100258C4600BF60E02D
:101520004FF0010808FA01F504EA050CAC4557D163
:10153000D0F800804FEA410A4FF0030909FA0AF98E
:1015400028EA0908C0F80080D0F800804FEA410975
:1015500002FA09F948EA0908C0F80080012A01D016
:10156000022A27D1D0F808804FEA410A4FF0030938
:1015700009FA0AF928EA0908C0F80880D0F80880B2
:101580004FEA410906FA09F948EA0908C0F8088053
:10159000D0F804904FF0010808FA01F829EA080988
:1015A000C0F80490D0F8048003FA01F948EA090869
:1015B000C0F80480D0F80C804FEA410A4FF00309CC
:1015C00009FA0AF928EA0908C0F80C80D0F80C805A
:1015D0004FEA410907FA09F948EA0908C0F80C80FE
:1015E000491C10299CD3BDE8F08700001FB54B486B
:1015F000006840F08000494908600846006840F4EF
:1016000080700860012000210B460A46CDE90010D9
:1016100080214348FFF77AFF012000900023024613
:10162000010201903F48FFF771FFFFF76FFB0022B7
:101630004FF480713B48FFF762FF0A200BF01CFC5F
:10164000012211023748FFF75AFF0A200BF014FC61
:101650000020009003460246802101903048FFF7A9
:1016600055FF64200BF008FC042202A948F2401048
:1016700000F07AF800208DF80C0002A92AA0FEF7ED
:10168000B7FF2CA102A8FFF703FA88B12AA102A88C
:10169000FFF7FEF960B12AA102A8FFF7F9F938B106
:1016A00029A102A8FFF7F4F910B1012004B010BD80
:1016B00021A102A8FFF7ECF970BB02208DF8080009
:1016C000012202A948F2400000F082FA012202A998
:1016D00048F2470000F048F89DF8080060280DDA4D
:1016E0009DF808101AA0FEF783FF1E48808845F277
:1016F0001051884202D1012000F03CFA0A200BF080
:10170000BBFB00208DF80800012202A948F240002E
:1017100000F05EFA0020C9E70020C7E7E044025865
:10172000001C0258002002584354502049443A25D6
:10173000730D0A00393131003931343700000000AF
:1017400031313538000000003932373100000000F7
:1017500044656661756C74205665723A25640D0A9D
:1017600000000000B40400242DE9F04105460F46B6
:101770001646FFF76BFB2820FFF740FBFFF7A2FBA5
:101780002812FFF73BFBFFF79DFBE8B2FFF736FBA4
:10179000FFF798FBFFF75AFB2920FFF72FFBFFF716
:1017A00091FB00240BE0711EA14201D0012100E059
:1017B00000210846FFF7F6FA3855601CC4B2B4425F
:1017C000F1DBFFF763FBBDE8F081000071B583B08A
:1017D000002001900026E3480078401CE149087091
:1017E000084600780A2190FBF1F201FB120018B1C3
:1017F000DC4800780A2877DA012203A948F24E1063
:10180000FFF7B2FF9DF80C0000F0800068B19DF872
:101810000C0000F00F00062807DA002001900122DA
:1018200001A948F24E1000F0D3F99DF80C0000F029
:101830000F00002858D09DF80C0000F00F0006287B
:10184000D9DA9DF80C0000F00F014FF6FF708840C8
:1018500084B2C548858EE04380B240F44040C2491E
:101860008886084681898182018C0185002001904B
:1018700020E1BD48808E9DF8042001219140084060
:10188000002830D0B9499DF8042031F81200042214
:1018900002A9FFF769FFB648808845F210518842D7
:1018A0003ED1B14890F8440000F00100E8B19DF845
:1018B00008009DF8091000EB012081B2AA482030F1
:1018C0009DF8042020F812109DF80A009DF80B10D6
:1018D00000EB0120C0F5487081B2A3480C309DF8A0
:1018E000042020F81210E0E016E19DF808009DF8B1
:1018F000091000EB012081B29B480C309DF80420B8
:1019000020F812109DF80A009DF80B1000EB012042
:1019100081B2954820309DF8042020F81210C4E0D0
:101920009348808844F2423188423DD18E4890F8F5
:10193000440000F00100D0B19DF808009DF80910A6
:1019400000EB012081B288480C309DF8042020F87B
:1019500012109DF80A009DF80B1000EB012081B2D7
:10196000814820309DF8042020F812109DE09DF859
:1019700008009DF8091000EB012081B27A48203060
:101980009DF8042020F812109DF80A009DF80B1015
:1019900000EB0120C0F5887081B273480C309DF8CF
:1019A000042020F8121080E07148808844F28431CD
:1019B00088423DD16C4890F8440000F00100D0B15D
:1019C0009DF808009DF8091000EB012081B26648DF
:1019D0000C309DF8042020F812109DF80A009DF8A4
:1019E0000B1000EB012081B25F4820309DF80420ED
:1019F00020F8121059E09DF808009DF8091000EB3E
:101A0000012081B2584820309DF8042020F812109F
:101A10009DF80A009DF80B1000EB0120C0F5F07056
:101A200081B251480C309DF8042020F812103CE09F
:101A30004D4890F8440000F00100E0B19DF8080026
:101A40009DF8091000EB012081B2474820309DF835
:101A5000042020F812109DF80A009DF80B1000EBEE
:101A60000120C0F5487081B23F480C309DF8042039
:101A700020F8121019E09DF808009DF8091000EBFD
:101A8000012081B238480C309DF8042020F8121053
:101A90009DF80A009DF80B1000EB012081B232483E
:101AA00020309DF8042020F812109DF80400401CFE
:101AB000C0B201909DF804000528FFF6DAAE0126B9
:101AC000294880892A490988884205DC2648008CF3
:101AD0002749498888421CDD9DF80C0000F00F0062
:101AE00001280ADD2048C0891F4988810846408CAA
:101AF000088400201B4908700EE01B48808A1A49A0
:101B000088810846008D08848020039008468586D9
:101B100002E00020134908709DF80C0000F08F00CF
:101B2000802815D11048808E00F4004030B10E4856
:101B3000808E20F400400C49888609E04FF6FF7043
:101B40000949888108840846808E00F460408886B0
:101B500004480078F02802DD0A2002490870304667
:101B600004B070BD360000243800002470B20408B0
:101B7000B404002438B50546002400208DF8000088
:101B80008DF8015000BF09E09DF800000F49095D84
:101B90000844C0B28DF80000601CC4B2B82CF3D366
:101BA0009DF80000C043401CC0B28DF80000B82270
:101BB000064948F2470000F00BF80222694648F255
:101BC000FF0000F005F8002038BD0000B8B104089F
:101BD0002DE9F04104460E4617464FF00008FFF786
:101BE00035F92820FFF70AF9FFF76CF92012FFF703
:101BF00005F9FFF767F9E0B2FFF700F9FFF762F9BF
:101C000000250BE0705DFFF7F9F8FFF75BF9804600
:101C1000B8F1000F00D003E0681CC5B2BD42F1DB93
:101C200000BFFFF733F94046BDE8F0811FB53D48DE
:101C3000006840F080003B4908600846006840F4B6
:101C400080700860012000210B460A46CDE9001093
:101C500080213548FFF75AFC0120009000230246FE
:101C6000010201903148FFF751FCFFF74FF80022C5
:101C70004FF480712D48FFF742FC0A200BF0FCF86E
:101C8000012211022948FFF73AFC0A200BF0F4F870
:101C90000020009003460246802101902248FFF771
:101CA00035FC64200BF0E8F8042202A948F2401049
:101CB00000F054F800208DF80C0002A91CA0FEF7DB
:101CC00097FC1FA102A8FEF7E3FE48BB02208DF897
:101CD0000800012202A948F24000FFF779FF012223
:101CE00002A948F24700FFF73FFD9DF80800412890
:101CF00007DA9DF8081014A0FEF77AFC012000F026
:101D000065F90A200BF0B8F800208DF808000122D0
:101D100002A948F24000FFF75BFF002004B010BDAD
:101D20000120FBE7E0440258001C02580020025842
:101D30004354502049443A25730D0A0D0A0000000F
:101D4000393237310000000044656661756C7420DB
:101D50005665723A25640D0A000000002DE9F04135
:101D600005460F461646FFF771F82820FFF746F89C
:101D7000FFF7A8F82812FFF741F8FFF7A3F8E8B239
:101D8000FFF73CF8FFF79EF8FFF760F82920FFF710
:101D900035F8FFF797F800240BE0711EA14201D03F
:101DA000012100E000210846FEF7FCFF3855601CC9
:101DB000C4B2B442F1DBFFF769F8BDE8F08100007E
:101DC00071B583B00020019000267C480078401C4B
:101DD0007A490870084600780A2190FBF1F201FB6D
:101DE000120018B1754800780A286EDA012203A99A
:101DF00048F24E10FFF7B2FF9DF80C0000F0800093
:101E000068B19DF80C0000F00F000B2807DA0020E5
:101E10000190012201A948F24E1000F005F99DF849
:101E20000C0000F00F0000284FD09DF80C0000F0CF
:101E30000F000B28D9DA9DF80C0000F00F014FF6C7
:101E4000FF70884084B25E48858EE04380B240F4E3
:101E500040405B49888608468189C183018C418660
:101E60000020019053E05648808E9DF80420012107
:101E70009140084040B353499DF8042031F81200C6
:101E8000062202A9FFF76AFF4D4890F8440000F0CF
:101E90000100D8B19DF80A009DF80B1000EB01205D
:101EA00081B2474820309DF8042020F812109DF898
:101EB00008009DF8091000EB012081B240480C3069
:101EC0009DF8042020F812101CE051E09DF80A0053
:101ED0009DF80B1000EB0120C0F5487081B2384826
:101EE0000C309DF8042020F812109DF808009DF891
:101EF000091000EB012081B2314820309DF8042008
:101F000020F812109DF80400401CC0B201909DF80A
:101F100004000A28A7DB0126294880892A49098864
:101F2000884205DC2648008C2749498888421CDD08
:101F30009DF80C0000F00F0001280ADD2048C08940
:101F40001F4988810846408C088400201B4908707E
:101F50000EE01B48C08B1A4988810846408E0884D1
:101F6000802003900846858602E00020134908700F
:101F70009DF80C0000F08F00802815D11048808E4D
:101F800000F4004030B10E48808E20F400400C492F
:101F9000888609E04FF6FF70094988810884084661
:101FA000808E00F46040888604480078F02802DDC6
:101FB0000A2002490870304604B070BD3700002482
:101FC0003800002434B30408B404002438B50546AE
:101FD000002400208DF800008DF8015000BF09E0BA
:101FE0009DF800000F49095D0844C0B28DF800005B
:101FF000601CC4B2B82CF3D39DF80000C043401C51
:10200000C0B28DF80000BA22064948F2470000F03D
:102010000BF80222694648F2FF0000F005F80020A4
:1020200038BD00007AB204082DE9F04104460E469E
:1020300017464FF00008FEF709FF2820FEF7DEFEE6
:10204000FEF740FF2012FEF7D9FEFEF73BFFE0B29D
:10205000FEF7D4FEFEF736FF00250BE0705DFEF7BD
:10206000CDFEFEF72FFF8046B8F1000F00D003E051
:10207000681CC5B2BD42F1DB00BFFEF707FF40465A
:10208000BDE8F08170B5044600260D4805880D486E
:10209000006818B1204603F073FC0FE00848408840
:1020A00045430021084603F095FA03F057FC00264B
:1020B00002E005490C80761CAE42FAD370BD0000E8
:1020C000B4040024C4040024000008602DE9FF4F7C
:1020D00081B080460D469146DDF838A0184800686A
:1020E00040B1CDF800A04A4629464046049B03F083
:1020F000CDFC21E0A9EB0800401C86B20498401BEF
:10210000401C1FFA80FB002414E0281981B24046CD
:1021100003F060FA03F022FC002707E004FB0670DE
:102120003AF8100007490880781C87B2B742F5DBFF
:10213000601C84B25C45E8DB05B0BDE8F08F0000B0
:10214000C40400240000086010B50446604884718F
:102150006048006850B1204603F042FD5D48C08AE7
:102160005B4908805B48008B488010BD002C58D12B
:10217000F020574908804FF4A070488008468088B6
:1021800045F21051884210D14FF430505049088127
:102190004FF4285048814FF42C5088814FF4F07050
:1021A00008804FF4487048801AE04948808841F61A
:1021B000631188420DD12C20454908812B2048818C
:1021C0002A2088814FF4F07008804FF448704880CE
:1021D00006E02C203E4908812A2048812B20888156
:1021E0003B48808845F21031884205D038488088C5
:1021F00047F29671884206D14FF4A07034490880A6
:102200004FF4F07048803248808849F606018842D1
:1022100058D14FF4F0702E4908804FF44870488030
:1022200050E04FF4A0702A490880F020488008460A
:10223000808845F21051884210D14FF43050244923
:1022400008814FF4285048814FF42C5088814FF476
:10225000487008804FF4F070488020E01C48808867
:1022600041F66311884205D01948808849F6060175
:1022700088420DD12C20164908812A2048812B2024
:1022800088814FF4487008804FF4F070488006E071
:102290002C200F4908812A2048812B2088810C4856
:1022A000808845F21031884205D00948808847F27D
:1022B0009671884206D14FF4F070054908804FF4BA
:1022C000A0704880002003F065F800BF4DE70000D3
:1022D000B4040024C40400242DE9FF4F85B08146D6
:1022E0008A460020049003900798A0EB09050898FF
:1022F000A0EB0A06CDF80890CDF804A0002D01DD72
:10230000012705E00DB9002702E04FF0FF376D42CD
:10231000002E02DD4FF0010806E016B94FF000086C
:1023200002E04FF0FF387642B54201DD2C4600E076
:1023300034464FF0000B21E0019A91B2029A90B21C
:1023400000F022F804982844049003983044039045
:102350000498A04205DD0498001B049002983844BC
:1023600002900398A04205DD0398001B039001989A
:10237000404401900BF101001FFA80FB601C834573
:10238000DADD09B0BDE8F08F70B504460D460A48A5
:10239000006830B1094829460268204603F036FC3F
:1023A00009E02946204603F015F903F0D7FA03485F
:1023B00000880349088070BDC40400241C00002468
:1023C000000008602DE9F04706460F4690460024BD
:1023D00045460320A0EB48093CE07A1B91B2321934
:1023E00090B2FFF7D1FF3A1B91B2721990B2FFF78A
:1023F000CBFF3A1991B2721990B2FFF7C5FF7A1963
:1024000091B2321990B2FFF7BFFF7A1991B2321B25
:1024100090B2FFF7B9FF3A1991B2721B90B2FFF771
:10242000B3FF7A1B91B2321B90B2FFF7ADFF3A1B9C
:1024300091B2721B90B2FFF7A7FF641CB9F1000FB5
:1024400003DAA000801D814404E0601B80000A3094
:1024500081446D1EAC42C0DDBDE8F08770B5044616
:102460000D4616463D48006828B1324629462046AA
:1024700003F0CCFB70BD3A48808845F21051884289
:1024800020D13749488903F05DFA201203F04EFA53
:1024900033494989491C88B203F054FAE0B203F089
:1024A00045FA2F49888903F04DFA281203F03EFAC5
:1024B0002B498989491C88B203F044FAE8B203F039
:1024C00035FA42E02648808841F66311884228D1D7
:1024D0002348807920B922480088401E001B84B21E
:1024E0001F49488903F02EFA201203F01FFAE0B2C8
:1024F00003F01CFA201203F019FAE0B203F016FA06
:102500001749888903F01EFA281203F00FFAE8B27F
:1025100003F00CFA281203F009FAE8B203F006FA05
:1025200013E00F49488903F00DFA201203F0FEF979
:10253000E0B203F0FBF90A49888903F003FA281294
:1025400003F0F4F9E8B203F0F1F905480089054910
:102550000880891C0E8000BF8CE70000C4040024A2
:10256000B4040024FEFF07601CB503F00BFFFE4916
:1025700088800846808818B103F014FC02F070BE11
:10258000FA48006840F00200F84908600846006810
:1025900040F018000860F5480C38006840F480509E
:1025A000F2490C39086001200090002302462021E6
:1025B0000190EF48FEF7AAFF012003210023022229
:1025C000CDE900104EF2B371EA48FEF79FFF0120FB
:1025D000032100230222CDE900104FF68071E64866
:1025E000FEF794FF0C220021E248FEF760FF0C2268
:1025F0000121E048FEF75BFF0C220421DD48FEF7D5
:1026000056FF0C220521DB48FEF751FF0C22072163
:10261000D848FEF74CFF0C220821D648FEF747FFAA
:102620000C220921D348FEF742FF0C220A21D1488F
:10263000FEF73DFF0C220D21CE48FEF738FF0C229D
:102640000E21CC48FEF733FF0C220F21C948FEF7BC
:102650002EFF0C220721C848FEF729FF0C22082173
:10266000C548FEF724FF0C220921C348FEF71FFFCF
:102670000C220A21C048FEF71AFF0C220B21BE488B
:10268000FEF715FF0C221146BB48FEF710FF0C2287
:102690000D21B948FEF70BFF0C220E21B648FEF7BC
:1026A00006FF0C220F21B448FEF701FF0020B349BA
:1026B00008604860B2490860B048006840F4805043
:1026C000AE4908600846006840F48040086008464B
:1026D000006840F0100008600846406848600846FE
:1026E000406840F00F0048600846406840F49C4055
:1026F0004860A3480068C1F804010846D0F8040106
:1027000040F00F00C1F804010846D0F8040140F47D
:102710007060C1F804010846006840F001000860DC
:102720000846006840F00040086032200AF0A4FB30
:10273000D32003F007F902F0FBFD8B49888002F0FB
:10274000F7FD8949888002F0F3FD874988800846B3
:1027500080884FF6FF7101EA00208349888002F0EB
:10276000E7FD8149898808437F4988800846808839
:1027700049F2413188427CD0042003F0E3F802F0B2
:10278000D7FD7949888002F0D3FD7749888002F02F
:10279000CFFD75498880084680884FF6FF7101EAB1
:1027A00000207149888002F0C3FD6F498988084381
:1027B0006D4988800846808848F25251884203D18A
:1027C00047F28970684988806748808847F2897134
:1027D0008842D0D0D42003F0B5F802F0A9FD6249B8
:1027E000888002F0A5FD6049888002F0A1FD5E4965
:1027F0008880084680884FF6FF7101EA00205A4918
:10280000888002F095FD5849898808435649888098
:102810000846808845F210318842ACD0D32003F0BE
:1028200091F802F085FD5049888002F081FD4E4903
:10283000888002F07DFD4C498880084680884FF6EC
:10284000FF7101EA00204849888002F071FD464985
:1028500089880843444988800846808847F29671F1
:10286000884288D055214FF4704003F081F8AA21A6
:1028700000E08DE04FF2010003F07AF852214FF2B0
:10288000020003F075F808214FF2030003F070F81E
:1028900001214FF2040003F06BF84FF4454003F0C0
:1028A00051F802F045FD30498880084680884FF68F
:1028B000FF7101EA00202C4988804CF2015003F09E
:1028C00041F802F035FD2849898808432649888067
:1028D00005200AF0D1FA2448808845F21051884238
:1028E00056D0D32003F02EF802F022FD1E49888036
:1028F00002F01EFD1C49888002F01AFD1A498880EA
:10290000084680884FF6FF7101EA0020164988804A
:1029100002F00EFD1449898808431349888008464F
:10292000808849F60601884232D0A12003F00AF8D7
:1029300002F0FEFC0C49888002F0FAFC0A4988800B
:10294000084680884FF6FF7101EA0020064988801A
:1029500002F0EEFC04498988084303498880084650
:10296000808845F261710DE0B4040024E04402580F
:1029700000040258000C0258001002580040005297
:1029800004410052884203D141F66310FE49888019
:10299000FD488188FDA0FDF72BFEFB48808849F2A9
:1029A000413188427ED1CF2002F0CCFF002002F0DE
:1029B000BDFFC12002F0BAFF302002F0B7FFED20CA
:1029C00002F0C0FF642002F0B1FF032002F0AEFF6E
:1029D000122002F0ABFF812002F0A8FFE82002F0F5
:1029E000B1FF852002F0A2FF102002F09FFF7A20A5
:1029F00002F09CFFCB2002F0A5FF392002F096FFE9
:102A00002C2002F093FF002002F090FF342002F00F
:102A10008DFF022002F08AFFF72002F093FF2020B2
:102A200002F084FFEA2002F08DFF002002F07EFF1A
:102A3000002002F07BFFC02002F084FF1B2002F088
:102A400075FFC12002F07EFF012002F06FFFC5205C
:102A500002F078FF302002F069FF302002F066FFBC
:102A6000C72002F06FFFB72002F060FF362002F0AF
:102A700069FF482002F05AFF3A2002F063FF552018
:102A800002F054FFB12002F05DFF002002F04EFF83
:102A90001A2002F04BFFB62002F054FF0A2002F089
:102AA00045FF00E096E0A22002F040FFF22002F095
:102AB00049FF002002F03AFF262002F043FF0120E8
:102AC00002F034FFE02002F03DFF0F2002F02EFF65
:102AD0002A2002F02BFF282002F028FF082002F015
:102AE00025FF0E2002F022FF082002F01FFF5420D5
:102AF00002F01CFFA92002F019FF432002F016FF8C
:102B00000A2002F013FF0F2002F010FF002002F055
:102B10000DFF002002F00AFF002002F007FF002056
:102B200002F004FFE12002F00DFF002002F0FEFEA3
:102B3000152002F0FBFE172002F0F8FE072002F03D
:102B4000F5FE112002F0F2FE062002F0EFFE2B202F
:102B500002F0ECFE562002F0E9FE3C2002F0E6FE18
:102B6000052002F0E3FE102002F0E0FE0F2002F04C
:102B7000DDFE3F2002F0DAFE3F2002F0D7FE0F20FC
:102B800002F0D4FE2B2002F0DDFE002002F0CEFE8B
:102B9000002002F0CBFE012002F0C8FE3F2002F030
:102BA000C5FE2A2002F0CEFE002002F0BFFE00206B
:102BB00002F0BCFE002002F0B9FEEF2002F0B6FEEB
:102BC000112002F0BFFE78200AF056F9292002F009
:102BD000B9FED3E46C48808847F2897188427CD181
:102BE000112002F0AFFE78200AF046F9362002F0FC
:102BF000A9FE002002F09AFE3A2002F0A3FE052072
:102C000002F094FEB22002F09DFE0C2002F08EFE37
:102C10000C2002F08BFE002002F088FE332002F030
:102C200085FE332002F082FEB72002F08BFE3520B5
:102C300002F07CFEBB2002F085FE322002F076FE20
:102C4000C02002F07FFE0C2002F070FEC22002F0D5
:102C500079FE012002F06AFEC32002F073FE10200C
:102C600002F064FEC42002F06DFE202002F05EFE41
:102C7000C62002F067FE0F2002F058FED02002F0BE
:102C800061FEA42002F052FEA12002F04FFEE020DF
:102C900002F058FED02002F049FE002002F046FE6D
:102CA000022002F043FE072002F040FE0A2002F05C
:102CB0003DFE282002F03AFE322002F037FE44208A
:102CC00002F034FE422002F031FE062002F02EFE19
:102CD0000E2002F02BFE122000E062E002F026FE41
:102CE000142002F023FE172002F020FEE12002F063
:102CF00029FED02002F01AFE002002F017FE02206A
:102D000002F014FE072002F011FE0A2002F00EFE6F
:102D1000282002F00BFE312002F008FE542002F0C1
:102D200005FE472002F002FE0E2002F0FFFD1C20EF
:102D300002F0FCFD172002F0F9FD1B2002F0F6FD69
:102D40001E2002F0F3FD2A2002F0FCFD002002F01C
:102D5000EDFD002002F0EAFD002002F0E7FDEF208B
:102D600002F0E4FD2B2002F0EDFD002002F0DEFD7C
:102D7000002002F0DBFD012002F0D8FD3F2002F030
:102D8000D5FD29200AE00000B4040024204C43446F
:102D90002049443A25780D0A0000000002F0D2FDD7
:102DA00017E7FE48808845F21031884240F07C8762
:102DB000ED2002F0C7FD012002F0B8FDFE2002F078
:102DC000B5FDEE2002F0BEFDDE2002F0AFFD2120B9
:102DD00002F0ACFDF12002F0B5FD012002F0A6FDED
:102DE000DF2002F0AFFD102002F0A0FDC42002F0B1
:102DF000A9FD8F2002F09AFDC62002F0A3FD00205D
:102E000002F094FDE22002F091FDE22002F08EFD3E
:102E1000E22002F08BFDBF2002F094FDAA2002F018
:102E200085FDB02002F08EFD0D2002F07FFD002018
:102E300002F07CFD0D2002F079FD002002F076FD0D
:102E4000112002F073FD002002F070FD192002F045
:102E50006DFD002002F06AFD212002F067FD0020D8
:102E600002F064FD2D2002F061FD002002F05EFD05
:102E70003D2002F05BFD002002F058FD5D2002F0D5
:102E800055FD002002F052FD5D2002F04FFD0020B4
:102E900002F04CFDB12002F055FD802002F046FD0D
:102EA000002002F043FD8B2002F040FD002002F0E4
:102EB0003DFD962002F03AFD002002F037FDB220E1
:102EC00002F040FD002002F031FD002002F02EFD56
:102ED000022002F02BFD002002F028FD032002F06A
:102EE00025FD002002F022FDB32002F02BFD002082
:102EF00002F01CFD002002F019FD002002F016FD7A
:102F0000002002F013FD002002F010FD002002F06E
:102F10000DFD002002F00AFD002002F007FD002058
:102F200002F004FD002002F001FD002002F0FEFC92
:102F3000002002F0FBFC002002F0F8FC002002F070
:102F4000F5FC002002F0F2FC002002F0EFFC002073
:102F500002F0ECFC002002F0E9FC002002F0E6FCAC
:102F6000002002F0E3FC002002F0E0FC002002F070
:102F7000DDFC002002F0DAFC002002F0D7FCB420D7
:102F800002F0E0FC8B2002F0D1FC002002F0CEFC2D
:102F9000962002F0CBFC002002F0C8FCA12002F039
:102FA000C5FC002002F0C2FCB52002F0CBFC0220E0
:102FB00002F0BCFC002002F0B9FC032002F0B6FCD9
:102FC000002002F0B3FC042002F0B0FC002002F06C
:102FD000ADFCB62002F0B6FC002002F0A7FC0020F9
:102FE00002F0A4FCB72002F0ADFC002002F09EFC31
:102FF000002002F09BFC3F2002F098FC002002F031
:1030000095FC5E2002F092FC002002F08FFC642010
:1030100002F08CFC002002F089FC8C2002F086FC7F
:10302000002002F083FCAC2002F080FC002002F0C3
:103030007DFCDC2002F07AFC002002F077FC70209E
:1030400002F074FC002002F071FC902002F06EFC93
:10305000002002F06BFCEB2002F068FC002002F084
:1030600065FCDC2002F062FC002002F05FFCB8206E
:1030700002F068FC002002F059FC002002F056FC2F
:10308000002002F053FC002002F050FC002002F06F
:103090004DFC002002F04AFC002002F047FC00201A
:1030A00002F044FCBA2002F04DFC242002F03EFC69
:1030B000002002F03BFC002002F038FC002002F06F
:1030C00035FCC12002F03EFC202002F02FFC002045
:1030D00002F02CFC542002F029FC002002F026FC17
:1030E000FF2002F023FC002002F020FCC22002F0AE
:1030F00029FC0A2002F01AFC002002F017FC042030
:1031000002F014FC002002F011FCC32002F01AFCB3
:103110003C2002F00BFC002002F008FC3A2002F0F8
:1031200005FC002002F002FC392002F0FFFB002029
:1031300002F0FCFB372002F0F9FB002002F0F6FB66
:103140003C2002F0F3FB002002F0F0FB362002F0FE
:10315000EDFB002002F0EAFB322002F0E7FB00204A
:1031600002F0E4FB2F2002F0E1FB002002F0DEFB86
:103170002C2002F0DBFB002002F0D8FB292002F01B
:10318000D5FB002002F0D2FB262002F0CFFB00206E
:1031900002F0CCFB242002F0C9FB01E0B4040024BF
:1031A000002002F0C3FB242002F0C0FB002002F04C
:1031B000BDFB232002F0BAFB002002F0B7FB3C204D
:1031C00002F0B4FB002002F0B1FB362002F0AEFBAF
:1031D000002002F0ABFB322002F0A8FB002002F03E
:1031E000A5FB2F2002F0A2FB002002F09FFB2C2069
:1031F00002F09CFB002002F099FB292002F096FBD4
:10320000002002F093FB262002F090FB002002F049
:103210008DFB242002F08AFB002002F087FB242093
:1032200002F084FB002002F081FB232002F07EFBF1
:10323000002002F07BFBC42002F084FB622002F03D
:1032400075FB002002F072FB052002F06FFB0020EE
:1032500002F06CFB842002F069FB002002F066FBA8
:10326000F02002F063FB002002F060FB182002F067
:103270005DFB002002F05AFBA42002F057FB002067
:1032800002F054FB182002F051FB002002F04EFB2C
:10329000502002F04BFB002002F048FB0C2002F013
:1032A00045FB002002F042FB172002F03FFB00200C
:1032B00002F03CFB952002F039FB002002F036FBC7
:1032C000F32002F033FB002002F030FBE62002F096
:1032D0002DFB002002F02AFBC52002F033FB322038
:1032E00002F024FB002002F021FB442002F01EFB30
:1032F000002002F01BFB652002F018FB002002F00A
:1033000015FB762002F012FB002002F00FFB882054
:1033100002F00CFB002002F009FBC62002F012FBB9
:10332000202002F003FB002002F000FB172002F037
:10333000FDFA002002F0FAFA012002F0F7FA00206C
:1033400002F0F4FAC72002F0FDFA002002F0EEFAD3
:10335000002002F0EBFA002002F0E8FA002002F070
:10336000E5FAC82002F0EEFA002002F0DFFA0020B1
:1033700002F0DCFA002002F0D9FA002002F0D6FABE
:10338000C92002F0DFFA002002F0D0FA002002F09B
:10339000CDFA002002F0CAFA002002F0C7FA00209D
:1033A00002F0C4FA002002F0C1FA002002F0BEFAD6
:1033B000002002F0BBFA002002F0B8FA002002F070
:1033C000B5FA002002F0B2FA002002F0AFFA0020B5
:1033D00002F0ACFA002002F0A9FA002002F0A6FAEE
:1033E000002002F0A3FAE02002F0ACFA162002F06E
:1033F0009DFA002002F09AFA1C2002F097FA0020B1
:1034000002F094FA212002F091FA002002F08EFAE4
:10341000362002F08BFA002002F088FA462002F0F3
:1034200085FA002002F082FA522002F07FFA002092
:1034300002F07CFA642002F079FA002002F076FAB9
:103440007A2002F073FA002002F070FA8B2002F06A
:103450006DFA002002F06AFA992002F067FA002063
:1034600002F064FAA82002F061FA002002F05EFA8D
:10347000B92002F05BFA002002F058FAC42002F0F2
:1034800055FA002002F052FACA2002F04FFA00204A
:1034900002F04CFAD22002F049FA002002F046FA7B
:1034A000D92002F043FA002002F040FAE02002F0B6
:1034B0003DFA002002F03AFAF32002F037FA002039
:1034C00002F034FAE12002F03DFA162002F02EFA62
:1034D000002002F02BFA1C2002F028FA002002F053
:1034E00025FA222002F022FA002002F01FFA3620EC
:1034F00002F01CFA002002F019FA452002F016FA38
:10350000002002F013FA522002F010FA002002F01C
:103510000DFA642002F00AFA002002F007FA7A207D
:1035200002F004FA002002F001FA8B2002F0FEF90A
:10353000002002F0FBF9992002F0F8F9002002F0D7
:10354000F5F9A82002F0F2F9002002F0EFF9B92015
:1035500002F0ECF9002002F0E9F9C42002F0E6F9EB
:10356000002002F0E3F9CA2002F0E0F9002002F0A6
:10357000DDF9D22002F0DAF9002002F0D7F9D820E4
:1035800002F0D4F9002002F0D1F9E02002F0CEF9E7
:10359000002002F0CBF9F32002F0C8F9002002F07D
:1035A000C5F9E22002F0CEF9052002F0BFF90020B3
:1035B00002F0BCF90B2002F0B9F9002002F0B6F9D4
:1035C0001B2002F0B3F9002002F0B0F9342002F021
:1035D000ADF9002002F0AAF9442002F0A7F900207A
:1035E00002F0A4F94F2002F0A1F9002002F09EF9A8
:1035F000612002F09BF9002002F098F9792002F096
:1036000095F9002002F092F9882002F08FF900204D
:1036100002F08CF9972002F089F9002002F086F977
:10362000A62002F083F9002002F080F9B72002F012
:103630007DF9002002F07AF9C22002F077F900202B
:1036400002F074F9C72002F071F9002002F06EF95F
:10365000D12002F06BF9002002F068F9D62002F0C8
:1036600065F9002002F062F9DD2002F05FF9002028
:1036700002F05CF9F32002F059F9002002F056F94B
:10368000E32002F05FF9052002F050F9002002F07B
:103690004DF90A2002F04AF9002002F047F91C20F7
:1036A00002F044F9002002F041F9332002F03EF923
:1036B000002002F03BF9442002F038F9002002F02B
:1036C00035F9502002F032F9002002F02FF9622083
:1036D00002F02CF9002002F029F9782002F026F9F6
:1036E000002002F023F9882002F020F9002002F0E7
:1036F0001DF9972002F01AF9002002F017F9A62010
:1037000002F014F9002002F011F9B72002F00EF9CE
:10371000002002F00BF9C22002F008F9002002F0AC
:1037200005F9C72002F002F9002002F0FFF8D120CD
:1037300002F0FCF8002002F0F9F8D52002F0F6F8CB
:10374000002002F0F3F8DD2002F0F0F8002002F093
:10375000EDF8F32002F0EAF8002002F0E7F8E420A8
:1037600002F0F0F8012002F0E1F8002002F0DEF8AB
:10377000012002F0DBF8002002F0D8F8022002F06D
:10378000D5F8002002F0D2F82A2002F0CFF800206D
:1037900002F0CCF83C2002F0C9F8002002F0C6F894
:1037A0004B2002F0C3F8002002F0C0F85D2002F0C8
:1037B000BDF8002002F0BAF8742002F0B7F800203B
:1037C00002F0B4F8842002F0B1F8002002F0AEF864
:1037D000932002F0ABF8002002F0A8F8A22002F03B
:1037E000A5F8002002F0A2F8B32002F09FF8002014
:1037F00002F09CF8BE2002F099F8002002F096F842
:10380000C42002F093F8002002F090F8CD2002F0DE
:103810008DF8002002F08AF8D32002F087F800200B
:1038200002F084F8DD2002F081F8002002F07EF83A
:10383000F32002F07BF8002002F078F8E52002F097
:1038400081F8002002F072F8002002F06FF80020EA
:1038500002F06CF8002002F069F8022002F066F82D
:10386000002002F063F8292002F060F8002002F046
:103870005DF83C2002F05AF8002002F057F84B2087
:1038800002F054F8002002F051F85D2002F04EF8EA
:10389000002002F04BF8742002F048F8002002F0FB
:1038A00045F8842002F042F8002002F03FF893200F
:1038B00002F03CF8002002F039F8A22002F036F8BD
:1038C000002002F033F8B32002F030F8002002F0BC
:1038D0002DF8BE2002F02AF8002002F027F8C420BC
:1038E00002F024F8002002F021F8CD2002F01EF8AA
:1038F000002002F01BF8D32002F018F8002002F09C
:1039000015F8DC2002F012F8002002F00FF8F32086
:1039100002F00CF8002002F009F8E62002F012F89C
:10392000112002F003F8002002F000F8342001F02A
:10393000FDFF002001F0FAFF562001F0F7FF002004
:1039400001F0F4FF762001F0F1FF002001F0EEFF1E
:10395000772001F0EBFF002001F0E8FF662001F086
:10396000E5FF002001F0E2FF882001F0DFFF0020EA
:1039700001F0DCFF992001F0D9FF002001F0D6FF13
:10398000BB2001F0D3FF002001F0D0FF992001F00F
:10399000CDFF002001F0CAFF662001F0C7FF002024
:1039A00001F0C4FF552001F0C1FF002001F0BEFF6F
:1039B000552001F0BBFF002001F0B8FF452001F0C9
:1039C000B5FF002001F0B2FF432001F0AFFF00205F
:1039D00001F0ACFF442001F0A9FF002001F0A6FF98
:1039E000E72001F0AFFF322001F0A0FF002001F03E
:1039F0009DFF552001F09AFF002001F097FF7620EF
:103A000001F094FF002001F091FF662001F08EFF8D
:103A1000002001F08BFF672001F088FF002001F0FB
:103A200085FF672001F082FF002001F07FFF8720E3
:103A300001F07CFF002001F079FF992001F076FF72
:103A4000002001F073FFBB2001F070FF002001F0A7
:103A50006DFF992001F06AFF002001F067FF7720D9
:103A600001F064FF002001F061FF442001F05EFFDF
:103A7000002001F05BFF562001F058FF002001F00C
:103A800055FF232001F052FF002001F04FFF3320AB
:103A900001F04CFF002001F049FF452001F046FFF6
:103AA000002001F043FFE82001F04CFF002001F06E
:103AB0003DFF002001F03AFF992001F037FF002080
:103AC00001F034FF872001F031FF002001F02EFFCC
:103AD000882001F02BFF002001F028FF772001F063
:103AE00025FF002001F022FF662001F01FFF0020CB
:103AF00001F01CFF882001F019FF002001F016FFE3
:103B0000AA2001F013FF002001F010FFBB2001F0FC
:103B10000DFF002001F00AFF992001F007FF0020AF
:103B200001F004FF662001F001FF002001F0FEFE1D
:103B3000552001F0FBFE002001F0F8FE552001F0B9
:103B4000F5FE002001F0F2FE442001F0EFFE00201F
:103B500001F0ECFE442001F0E9FE002001F0E6FE59
:103B6000552001F0E3FE002001F0E0FEE92001F025
:103B7000E9FEAA2001F0DAFE002001F0D7FE0020C5
:103B800001F0D4FE002001F0D1FE002001F0DAFEA9
:103B9000AA2001F0CBFECF2001F0D4FE002001F0DE
:103BA000C5FE002001F0C2FE002001F0BFFE002093
:103BB00001F0BCFE002001F0B9FE002001F0B6FECD
:103BC000002001F0B3FE002001F0B0FE002001F063
:103BD000ADFE002001F0AAFE002001F0A7FE0020AB
:103BE00001F0A4FE002001F0A1FE002001F09EFEE5
:103BF000002001F09BFE002001F098FE002001F063
:103C000095FEF02001F09EFE002001F08FFE502076
:103C100001F08CFE002001F089FE002001F086FEFC
:103C2000002001F083FEF32001F08CFE002001F063
:103C30007DFEF92001F086FE062001F077FE1020BF
:103C400001F074FE292001F071FE002001F06EFEEB
:103C50003A2001F077FE552001F068FE112001F0B6
:103C600071FE642009F008F9292001F06BFE35206F
:103C700001F068FE002001F059FE512001F062FEC3
:103C8000FF2001F053FE532001F05CFE2C2001F0D8
:103C90004DFE552001F056FE822001F047FE2C20FB
:103CA00001F050FE01F0DCBAFE48808845F2105168
:103CB00088427DD155214FF4704001F059FEAA2170
:103CC0004FF2010001F054FE52214FF2020001F0C8
:103CD0004FFE08214FF2030001F04AFE01214FF28E
:103CE000040001F045FE0D214FF4304001F040FE8C
:103CF0000D214BF2010001F03BFE0D214BF20200C1
:103D000001F036FE34214FF4364001F031FE34210B
:103D10004BF2016001F02CFE34214BF2026001F005
:103D200027FE0D214FF4314001F022FE0D214BF210
:103D3000011001F01DFE0D214BF2021001F018FEE2
:103D400034214FF4374001F013FE34214BF201705F
:103D500001F00EFE34214BF2027001F009FE002149
:103D60004FF4324001F004FE00214BF2012001F03B
:103D7000FFFD00214BF2022001F0FAFD24214FF457
:103D8000384001F0F5FD24214BF6010001F0F0FD73
:103D900024214BF6020001F0EBFD01214FF43F40DE
:103DA00001F0E6FD0F214FF4334001F0E1FD00E0AA
:103DB000FDE30F214BF2013001F0DAFD0F214BF250
:103DC000023001F0D5FD34214FF4394001F0D0FD2F
:103DD00034214BF6011001F0CBFD34214BF60210DB
:103DE00001F0C6FD08214FF4354001F0C1FD082166
:103DF0004BF2015001F0BCFD08214BF2025001F0E2
:103E0000B7FD03214FF4424001F0B2FD24214FF4ED
:103E10003A4001F0ADFD24214BF6012001F0A8FD50
:103E200024214BF6022001F0A3FD00214FF43C4079
:103E300001F09EFD78214BF6014001F099FD002133
:103E40004BF6024001F094FD00214FF43D4001F09B
:103E50008FFD78214BF6015001F08AFD00214BF6D1
:103E6000025001F085FD00214FF43E4001F080FD3D
:103E700064214BF6016001F07BFD00214FF45140BD
:103E800001F076FD33214DF2011001F071FD0021AA
:103E90004DF2021001F06CFD34214DF2031001F0DF
:103EA00067FD00214DF2041001F062FD3A214DF250
:103EB000051001F05DFD00214DF2061001F058FDE6
:103EC0004A214DF2071001F053FD00214DF2081078
:103ED00001F04EFD5C214DF2091001F049FD002179
:103EE0004DF20A1001F044FD81214DF20B1001F05A
:103EF0003FFD00214DF20C1001F03AFDA6214DF2DC
:103F00000D1001F035FD00214DF20E1001F030FDD5
:103F1000E5214DF20F1001F02BFD01214DF21010A3
:103F200001F026FD13214DF2111001F021FD0121B8
:103F30004DF2121001F01CFD54214DF2131001F04E
:103F400017FD01214DF2141001F012FD82214DF2F6
:103F5000151001F00DFD01214DF2161001F008FDC4
:103F6000CA214DF2171001F003FD02214DF2181085
:103F700001F0FEFC00214DF2191001F0F9FC0221C4
:103F80004DF21A1001F0F4FC01214DF21B1001F06A
:103F9000EFFC02214DF21C1001F0EAFC34214DF23D
:103FA0001D1001F0E5FC02214DF21E1001F0E0FCB5
:103FB00067214DF21F1001F0DBFC02214DF22010B1
:103FC00001F0D6FC84214DF2211001F0D1FC022138
:103FD0004DF2221001F0CCFCA4214DF2231001F08F
:103FE000C7FC02214DF2241001F0C2FCB7214DF2B2
:103FF000251001F0BDFC02214DF2261001F0B8FCA5
:10400000CF214DF2271001F0B3FC02214DF2281010
:1040100001F0AEFCDE214DF2291001F0A9FC0221D5
:104020004DF22A1001F0A4FCF2214DF22B1001F008
:104030009FFC02214DF22C1001F09AFCFE214DF262
:104040002D1001F095FC03214DF22E1001F090FC93
:1040500010214DF22F1001F08BFC03214DF2301096
:1040600001F086FC33214DF2311001F081FC032177
:104070004DF2321001F07CFC6D214DF2331001F055
:1040800077FC00214FF4524001F072FC33214DF2D5
:10409000012001F06DFC00214DF2022001F068FCCE
:1040A000342101E0B40400244DF2032001F060FC4F
:1040B00000214DF2042001F05BFC3A214DF2052075
:1040C00001F056FC00214DF2062001F051FC4A217E
:1040D0004DF2072001F04CFC00214DF2082001F0C8
:1040E00047FC5C214DF2092001F042FC00214DF219
:1040F0000A2001F03DFC81214DF20B2001F038FC3B
:1041000000214DF20C2001F033FCA6214DF20D20D0
:1041100001F02EFC00214DF20E2001F029FCE521DA
:104120004DF20F2001F024FC01214DF2102001F08E
:104130001FFC13214DF2112001F01AFC01214DF258
:10414000122001F015FC54214DF2132001F010FC57
:1041500001214DF2142001F00BFC82214DF21520BB
:1041600001F006FC01214DF2162001F001FCCA21EC
:104170004DF2172001F0FCFB02214DF2182001F056
:10418000F7FB00214DF2192001F0F2FB02214DF264
:104190001A2001F0EDFB01214DF21B2001F0E8FB9C
:1041A00002214DF21C2001F0E3FB34214DF21D20D1
:1041B00001F0DEFB02214DF21E2001F0D9FB672148
:1041C0004DF21F2001F0D4FB02214DF2202001F01E
:1041D000CFFB84214DF2212001F0CAFB02214DF2D8
:1041E000222001F0C5FBA4214DF2232001F0C0FBE9
:1041F00002214DF2242001F0BBFBB7214DF2252016
:1042000001F0B6FB02214DF2262001F0B1FBCF21D7
:104210004DF2272001F0ACFB02214DF2282001F0E5
:10422000A7FBDE214DF2292001F0A2FB02214DF275
:104230002A2001F09DFBF2214DF22B2001F098FB8A
:1042400002214DF22C2001F093FBFE214DF22D2096
:1042500001F08EFB03214DF22E2001F089FB10218D
:104260004DF22F2001F084FB03214DF2302001F0AC
:104270007FFB33214DF2312001F07AFB03214DF217
:10428000322001F075FB6D214DF2332001F070FBFF
:1042900000214FF4534001F06BFB33214DF201300C
:1042A00001F066FB00214DF2023001F061FB342188
:1042B0004DF2033001F05CFB00214DF2043001F0BF
:1042C00057FB3A214DF2053001F052FB00214DF22F
:1042D000063001F04DFB4A214DF2073001F048FB5A
:1042E00000214DF2083001F043FB5C214DF2093012
:1042F00001F03EFB00214DF20A3001F039FB812133
:104300004DF20B3001F034FB00214DF20C3001F086
:104310002FFBA6214DF20D3001F02AFB00214DF2BA
:104320000E3001F025FBE5214DF20F3001F020FBAE
:1043300001214DF2103001F01BFB13214DF2113021
:1043400001F016FB01214DF2123001F011FB542156
:104350004DF2133001F00CFB01214DF2143001F04D
:1043600007FB82214DF2153001F002FB01214DF2D5
:10437000163001F0FDFACA214DF2173001F0F8FABB
:1043800002214DF2183001F0F3FA00214DF21930FC
:1043900001F0EEFA02214DF21A3001F0E9FA0121A2
:1043A0004DF21B3001F0E4FA02214DF21C3001F015
:1043B000DFFA34214DF21D3001F0DAFA02214DF21C
:1043C0001E3001F0D5FA67214DF21F3001F0D0FA0E
:1043D00002214DF2203001F0CBFA84214DF2213040
:1043E00001F0C6FA02214DF2223001F0C1FAA421F7
:1043F0004DF2233001F0BCFA02214DF2243001F0DD
:10440000B7FAB7214DF2253001F0B2FA02214DF290
:10441000263001F0ADFACF214DF2273001F0A8FA95
:1044200002214DF2283001F0A3FADE214DF22930AD
:1044300001F09EFA02214DF22A3001F099FAF221A0
:104440004DF22B3001F094FA02214DF22C3001F0A4
:104450008FFAFE214DF22D3001F08AFA03214DF240
:104460002E3001F085FA10214DF22F3001F080FA44
:1044700003214DF2303001F07BFA33214DF231301F
:1044800001F076FA03214DF2323001F071FA6D211C
:104490004DF2333001F06CFA00214FF4544001F03A
:1044A00067FA33214DF2014001F062FA00214DF22A
:1044B000024001F05DFA34214DF2034001F058FA58
:1044C00000214DF2044001F053FA3A214DF205402B
:1044D00001F04EFA00214DF2064001F049FA4A215E
:1044E0004DF2074001F044FA00214DF2084001F07E
:1044F0003FFA5C214DF2094001F03AFA00214DF2F9
:104500000A4001F035FA81214DF20B4001F030FAFA
:1045100000214DF20C4001F02BFAA6214DF20D4086
:1045200001F026FA00214DF20E4001F021FAE521BA
:104530004DF20F4001F01CFA01214DF2104001F044
:1045400017FA13214DF2114001F012FA01214DF238
:10455000124001F00DFA54214DF2134001F008FA17
:1045600001214DF2144001F003FA82214DF2154071
:1045700001F0FEF901214DF2164001F0F9F9CA21CE
:104580004DF2174001F0F4F902214DF2184001F00C
:10459000EFF900214DF2194001F0EAF902214DF244
:1045A0001A4001F0E5F901214DF21B4000E005E35E
:1045B00001F0DEF902214DF21C4001F0D9F934215D
:1045C0004DF21D4001F0D4F902214DF21E4001F0E0
:1045D000CFF967214DF21F4001F0CAF902214DF2D7
:1045E000204001F0C5F984214DF2214001F0C0F9CD
:1045F00002214DF2224001F0BBF9A4214DF22340EB
:1046000001F0B6F902214DF2244001F0B1F9B721D1
:104610004DF2254001F0ACF902214DF2264001F0A7
:10462000A7F9CF214DF2274001F0A2F902214DF266
:10463000284001F09DF9DE214DF2294001F098F962
:1046400002214DF22A4001F093F9F2214DF22B4064
:1046500001F08EF902214DF22C4001F089F9FE2182
:104660004DF22D4001F084F903214DF22E4001F06E
:104670007FF910214DF22F4001F07AF903214DF21C
:10468000304001F075F933214DF2314001F070F9FD
:1046900003214DF2324001F06BF96D214DF23340B0
:1046A00001F066F900214FF4554001F061F9332122
:1046B0004DF2015001F05CF900214DF2025001F081
:1046C00057F934214DF2035001F052F900214DF217
:1046D000045001F04DF93A214DF2055001F048F92E
:1046E00000214DF2065001F043F94A214DF20750E6
:1046F00001F03EF900214DF2085001F039F95C213A
:104700004DF2095001F034F900214DF20A5001F048
:104710002FF981214DF20B5001F02AF900214DF2C1
:104720000C5001F025F9A6214DF20D5001F020F9B1
:1047300000214DF20E5001F01BF9E5214DF20F5012
:1047400001F016F901214DF2105001F011F9132179
:104750004DF2115001F00CF901214DF2125001F00F
:1047600007F954214DF2135001F002F901214DF2E5
:10477000145001F0FDF882214DF2155001F0F8F8C7
:1047800001214DF2165001F0F3F8CA214DF21750F5
:1047900001F0EEF802214DF2185001F0E9F8002185
:1047A0004DF2195001F0E4F802214DF21A5001F0D7
:1047B000DFF801214DF21B5001F0DAF802214DF231
:1047C0001C5001F0D5F834214DF21D5001F0D0F805
:1047D00002214DF21E5001F0CBF867214DF21F501F
:1047E00001F0C6F802214DF2205001F0C1F88421F9
:1047F0004DF2215001F0BCF802214DF2225001F09F
:10480000B7F8A4214DF2235001F0B2F802214DF285
:10481000245001F0ADF8B7214DF2255001F0A8F871
:1048200002214DF2265001F0A3F8CF214DF227507E
:1048300001F09EF802214DF2285001F099F8DE2196
:104840004DF2295001F094F802214DF22A5001F066
:104850008FF8F2214DF22B5001F08AF802214DF22F
:104860002C5001F085F8FE214DF22D5001F080F81A
:1048700003214DF22E5001F07BF810214DF22F5004
:1048800001F076F803214DF2305001F071F8332138
:104890004DF2315001F06CF803214DF2325001F02D
:1048A00067F86D214DF2335001F062F800214FF4AA
:1048B000564001F05DF833214DF2016001F058F8E7
:1048C00000214DF2026001F053F834214DF20360F3
:1048D00001F04EF800214DF2046001F049F83A2150
:1048E0004DF2056001F044F800214DF2066001F040
:1048F0003FF84A214DF2076001F03AF800214DF2ED
:10490000086001F035F85C214DF2096001F030F8E3
:1049100000214DF20A6001F02BF881214DF20B606D
:1049200001F026F800214DF20C6001F021F8A621DB
:104930004DF20D6001F01CF800214DF20E6001F007
:1049400017F8E5214DF20F6001F012F801214DF248
:10495000106001F00DF813214DF2116001F008F81C
:1049600001214DF2126001F003F854214DF2136061
:1049700000F0FEFF01214DF2146000F0F9FF8221EA
:104980004DF2156000F0F4FF01214DF2166000F0C9
:10499000EFFFCA214DF2176000F0EAFF02214DF24D
:1049A000186000F0E5FF00214DF2196000F0E0FF13
:1049B00002214DF21A6000F0DBFF01214DF21B6075
:1049C00000F0D6FF02214DF21C6000F0D1FF34212F
:1049D0004DF21D6000F0CCFF02214DF21E6000F090
:1049E000C7FF67214DF21F6000F0C2FF02214DF2A8
:1049F000206000F0BDFF84214DF2216000F0B8FF7F
:104A000002214DF2226000F0B3FFA4214DF2236099
:104A100000F0AEFF02214DF2246000F0A9FFB721A3
:104A20004DF2256000F0A4FF02214DF2266000F057
:104A30009FFFCF214DF2276000F09AFF02214DF237
:104A4000286000F095FFDE214DF2296000F090FF14
:104A500002214DF22A6000F08BFFF2214DF22B6013
:104A600000F086FF02214DF22C6000F081FFFE2154
:104A70004DF22D6000F07CFF03214DF22E6000F01E
:104A800077FF10214DF22F6000F072FF03214DF2ED
:104A9000306000F06DFF33214DF2316000F068FFAF
:104AA00003214DF2326000F063FF6D214DF233605F
:104AB00000F05EFF55214FF4704000F059FFAA212D
:104AC0004FF2010000F054FF52214FF2020000F0BB
:104AD0004FFF08214FF2030000F04AFF00214FF280
:104AE000040000F045FFCC214FF4314000F040FFBE
:104AF00000214BF2011000F03BFF05214FF436403E
:104B000000F036FF70214FF4374000F031FF702184
:104B10004BF2017000F02CFF01214FF4384000F0FF
:104B200027FF03214BF6010000F022FF03214BF683
:104B3000020000F01DFF03214BF6030000F018FFF8
:104B400002214FF43C4000F013FF00214BF60140DE
:104B500000F00EFF00214BF6024000F009FFD021CB
:104B60004FF4494000F004FF02214CF6011000F020
:104B7000FFFE50214CF6021000F0FAFE50214CF6D8
:104B8000031000F0F5FE50214CF6041000F0F0FE8A
:104B900000214FF4545000F0EBFE55214FF46850C3
:104BA00000F0E6FE4FF4885000F0CCFE782008F0CC
:104BB00085F94FF4245000F0C5FE51E3FE4880888B
:104BC00047F2967188427CD1112000F0BBFE78201C
:104BD00008F052F9362000F0B5FE482000F0A6FE9D
:104BE0003A2000F0AFFE552000F0A0FEF02000F0CB
:104BF000A9FEC32000F09AFEF02000F0A3FE96204C
:104C000000F094FEB42000F09DFE012000F08EFE26
:104C1000B62000F097FE0A2000F088FEA22000F0E7
:104C200085FEB72000F08EFEC62000F07FFEB92082
:104C300000F088FE022000F079FEE02000F076FE11
:104C4000C02000F07FFE802000F070FE162000F0F3
:104C50006DFEC12000F076FE192000F067FEC22034
:104C600000F070FEA72000F061FEC52000F06AFE93
:104C7000162000F05BFEE82000F064FE402000F00B
:104C800055FE8A2000F052FE002000F04FFE00206A
:104C900000F04CFE292000F049FE192000F046FEED
:104CA000A52000F043FE332000F040FEE02000F09D
:104CB00049FEF02000F03AFE072000F037FE0D20FC
:104CC00000E065E000F032FE042000F02FFE052039
:104CD00000F02CFE142000F029FE362000F026FE05
:104CE000542000F023FE4C2000F020FE382000F07D
:104CF0001DFE132000F01AFE142000F017FE2E20D7
:104D000000F014FE342000F011FEE12000F01AFE45
:104D1000F02000F00BFE102000F008FE142000F040
:104D200005FE0E2000F002FE0C2000F0FFFD082022
:104D300000F0FCFD352000F0F9FD442000F0F6FD08
:104D40004C2000F0F3FD262000F0F0FD102000F0D4
:104D5000EDFD122000F0EAFD2C2000F0E7FD3220EE
:104D600000F0E4FDF02000F0EDFD3C2000F0DEFD61
:104D7000F02000F0E7FD692000F0D8FD782008F071
:104D80007BF8212000F0DEFD292000F0DBFD67E24A
:104D90008948808849F6060188427CD1FF2000F0CE
:104DA000D1FDFF2000F0C2FD982000F0BFFD0620DD
:104DB00000F0BCFDBC2000F0C5FD012000F0B6FDF8
:104DC0000F2000F0B3FD612000F0B0FDFF2000F0E7
:104DD000ADFD012000F0AAFD012000F0A7FD0B2091
:104DE00000F0A4FD102000F0A1FD372000F09EFD92
:104DF000632000F09BFDFF2000F098FDFF2000F0F5
:104E000095FD012000F092FD012000F08FFD0020B3
:104E100000F08CFD002000F089FDFF2000F086FDF1
:104E2000522000F083FD012000F080FD002000F002
:104E30007DFD402000F07AFDBD2000F083FD0120C3
:104E400000F074FD232000F071FD452000F06EFDA0
:104E5000672000F06BFD012000F068FD232000F0CA
:104E600065FD452000F062FD672000F05FFDBE207B
:104E700000F068FD002000F059FD012000F056FD13
:104E8000AB2000F053FD602000F050FD222000F028
:104E90004DFD222000E025E100F048FD222000F039
:104EA00045FD222000F042FD222000F03FFDC720FA
:104EB00000F048FD362000F039FDED2000F042FD05
:104EC0007F2000F033FD0F2000F030FDC02000F007
:104ED00039FD0F2000F02AFD0B2000F027FD0A20ED
:104EE00000F024FDFC2000F02DFD082000F01EFD48
:104EF000DF2000F027FD002000F018FD002000F06A
:104F000015FD002000F012FD002000F00FFD002034
:104F100000F00CFD202000F009FDF32000F012FD50
:104F2000742000F003FDB42000F00CFD002000F020
:104F3000FDFC002000F0FAFC002000F0F7FCF72058
:104F400000F000FD822000F0F1FCB12000F0FAFC3E
:104F5000002000F0EBFC132000F0E8FC132000F030
:104F6000E5FCF22000F0EEFC802000F0DFFC0420E5
:104F700000F0DCFC402000F0D9FC282000F0D6FC3A
:104F8000C12000F0DFFC172000F0D0FC882000F0EA
:104F9000CDFC882000F0CAFC202000F0C7FCE020F7
:104FA00000F0D0FC002000F0C1FC0A2000F0BEFCA4
:104FB000122000F0BBFC01E0B4040024102000F03B
:104FC000B5FC0E2000F0B2FC202000F0AFFCCC209D
:104FD00000F0ACFC072000F0A9FC062000F0A6FCC5
:104FE0000B2000F0A3FC0E2000F0A0FC0F2000F02E
:104FF0009DFC0D2000F09AFC152000F097FC10207D
:1050000000F094FC002000F091FCE12000F09AFCFC
:10501000002000F08BFC0B2000F088FC132000F037
:1050200085FC0D2000F082FC0E2000F07FFC1B2090
:1050300000F07CFC712000F079FC062000F076FC8A
:10504000062000F073FC0A2000F070FC0F2000F036
:105050006DFC0E2000F06AFC0F2000F067FC1520AC
:1050600000F064FC0C2000F061FC002000F05EFC0D
:105070002A2000F067FC002000F058FC002000F01F
:1050800055FC012000F052FCDF2000F04FFC2B20EB
:1050900000F058FC002000F049FC002000F046FC25
:1050A000032000F043FC1F2000F040FC3A2000F0F9
:1050B00049FC552000F03AFC362000F043FC00206B
:1050C00000F034FC112000F03DFC782007F0D4FE05
:1050D000292000F037FC142007F0CEFE2C2000F031
:1050E00031FCBDE08848808841F663118842F8D1E0
:1050F000E22000F027FC1D2000F018FC022000F048
:1051000015FC042000F012FC642007F0D7FEE0201C
:1051100000F018FC012000F009FC0A2007F0ACFEAA
:10512000E02000F00FFC032000F000FC0C2007F052
:10513000A3FE012000F006FC0A2007F09DFEE620F9
:1051400000F000FC2F2000F0F1FBFF2000F0EEFB50
:10515000FF2000F0EBFBB02000F0F4FB202000F07B
:10516000E5FB002000F0E2FB032000F0DFFB40F253
:105170001F3000F0DBFB012000F0D8FB40F2DF1015
:1051800000F0D4FB002000F0D1FBB42000F0DAFBEB
:10519000042000F0CBFB40F21F4000F0C7FB0020D2
:1051A00000F0C4FB2E2000F0C1FB002000F0BEFB8D
:1051B000002000F0BBFB002000F0B8FB002000F056
:1051C000B5FBB62000F0BEFB022000F0AFFB4FF4B1
:1051D000037000F0ABFB002000F0A8FB172000F0EC
:1051E000A5FB152000F0A2FB002000F09FFB002093
:1051F00000F09CFBF02000F0A5FB032000F096FBE4
:10520000292000F09FFBD02000F09CFB002000F044
:105210008DFBBE2000F096FB052000F087FBFE20F2
:1052200000F084FB012000F081FB002000F07EFBF9
:10523000002000F07BFB002000F078FBB82000F09D
:1052400081FB032000F072FB012000F06FFBBA200D
:1052500000F078FB012000F069FB642000F072F898
:105260002948808849F24131884223D026488088E5
:1052700045F2103188421DD02348808845F21051F4
:10528000884217D02048808841F66311884211D0A7
:105290001D48808847F2897188420BD01A4880885F
:1052A00047F29671884205D01748808849F6060172
:1052B00088421BD11548006820F00F001449C1F83E
:1052C00004010846D0F8040120F47060C1F804011C
:1052D0000846D0F8040140F00500C1F80401084672
:1052E000D0F8040140F4A060C1F804010020FCF7EC
:1052F0002BFF012220210748FCF701F94FF6FF7030
:10530000FCF7C0FE1CBD0000B404002404410052A0
:10531000004000520004025810B50246012000E08F
:1053200050430B1EA1F10104E1B2F9D110BD000000
:1053300008B5034800880090BDF8000008BD0000D3
:105340000000086000B50246BE2000F0FBFA052010
:1053500000F0ECFA00EE102AB8EE400B9FED0B1BAC
:1053600020EE010BBCEEC00B10EE101A88B200F05C
:10537000DDFA012000F0DAFAFF2000F0D7FA002071
:1053800000F0D4FA002000F0D1FA00BD666666662F
:1053900066660440F0B50546002400278C488079F5
:1053A000012805D18A48808841F66311884208D1D6
:1053B00087488079F0B98648808841F66311884231
:1053C00018D1082D15D2DFE805F00406080A0C0EE6
:1053D000101206250DE007250BE0042509E0052540
:1053E00007E0012505E0002503E0032501E0022593
:1053F00000BF00BF082D1CD2DFE805F00406090C31
:105400000F12151800BF14E044F0800411E044F0BE
:1054100040040EE044F0C0040BE044F0200408E037
:1054200044F0600405E044F0A00402E044F0E0042D
:1054300000BF00BF6648808845F21051884202D103
:105440004FF4585700E036276148808849F24131CF
:1054500088420BD05E48808847F28971884205D027
:105460005B48808847F29671884201D144F0080475
:105470002146384600F07CFA5548808841F6631191
:1054800088421DD004F0200068B15148008850497E
:105490004988884214DA4E48068840884C4908807A
:1054A000084646800CE04A480088494949888842B5
:1054B00006DD4748068840884549088008464680FA
:1054C0004348808845F21051884252D1404948896A
:1054D00000F038FA002000F029FA3D494989491CBA
:1054E00088B200F02FFA002000F020FA38494989EC
:1054F000891C88B200F026FA35490988491EC1F393
:105500000F2000F013FA32494989C91C88B200F013
:1055100019FA2F490978491EC8B200F007FA2C4938
:10552000888900F00FFA002000F000FA28498989E4
:10553000491C88B200F006FA002000F0F7F924496F
:105540008989891C88B200F0FDF921494988491EE2
:10555000C1F30F2000F0EAF91D498989C91C88B2FE
:1055600000F0F0F91A498978491EC8B200F0DEF956
:105570002DE01749488900F0E5F9002000F0D6F940
:10558000002000F0D3F912490988491EC1F30F2009
:1055900000F0CCF90E490978491EC8B200F0C6F9EE
:1055A0000B49888900F0CEF9002000F0BFF90020F7
:1055B00000F0BCF906494988491EC1F30F2000F0EC
:1055C000B5F903498978491EC8B200F0AFF9F0BDBA
:1055D000B404002410B502460C464548808841F6C4
:1055E0006311884247D142488079A8B94048008871
:1055F000401E801A82B23E49488900F0A3F900207B
:1056000000F094F9002000F091F9101200F08EF9EA
:10561000D0B200F08BF916E03549488900F092F9D4
:10562000101200F083F9D0B200F080F930490988F7
:10563000491EC1F30F2000F079F92D490978491E60
:10564000C8B200F073F92A49888900F07BF920126A
:1056500000F06CF9E0B200F069F925494988491E6B
:10566000C1F30F2000F062F921498978491EC8B2C0
:1056700000F05CF93AE01E48808845F210518842FB
:1056800020D11B49488900F05DF9101200F04EF955
:1056900017494989491C88B200F054F9D0B200F08A
:1056A00045F91349888900F04DF9201200F03EF9C0
:1056B0000F498989491C88B200F044F9E0B200F032
:1056C00035F913E00A49488900F03CF9101200F05E
:1056D0002DF9D0B200F02AF90549888900F032F995
:1056E000201200F023F9E0B200F020F910BD000014
:1056F000B40400242DE9F84F80460F4616461C4698
:10570000BB462046E31704EB5373DB1021464FEAF8
:10571000E47C04EB5C7C4FEAEC0CA4EBCC0CBCF11D
:10572000000F02D04FF0010C01E04FF0000C634479
:10573000224604EBD27C4FEA6C0C03FB0CF3DBB289
:105740000093A6F12000C6B200255EE00C2C07D124
:1057500006EB46002F4901EB800010F805901BE096
:10576000102C05D12C4800EB061010F8059013E022
:10577000182C07D106EBC600284901EB800010F871
:10578000059009E0202C05D1254800EBC61010F843
:10579000059001E0BDE8F88F4FF0000A2FE009F016
:1057A000800030B11F48394602684046FCF756FE7B
:1057B00007E00A9828B91C48394602684046FCF7B9
:1057C0004DFE4FEA49604FEA1069781C87B21748CE
:1057D0004088B84200DCDDE7A7EB0B00A0420AD10D
:1057E0005F4608F101001FFA80F810480088404524
:1057F00000DCCFE706E00AF1010000F0FF0ABAF191
:10580000080FCCDB00BF681CC5B2009885429DDB49
:1058100000BFBFE7646A0408D86E0408C8740408AF
:10582000248204081C00002420000024B404002466
:105830002DE9FF4F81B0074691461E460E9D4FF061
:10584000000A002439E0301B401EC1B20A20FFF7D5
:1058500063FDB9FBF0F00A21B0FBF1F201FB120885
:10586000BAF1000F16D1701EA04213DDB8F1000F7F
:105870000ED10020AB4605EBDB71491001FB047132
:10588000009088B22B4620220299FFF733FF12E0E6
:105890004FF0010A0020AB4605EBDB71491001FB1C
:1058A0000471009088B208F13001CAB22B46029907
:1058B000FFF720FF00BF601CC4B2B442C3DB05B0D9
:1058C000BDE8F08F2DE9F84F04460D469046994605
:1058D000DDE90A6704F0FF0A08EB04001FFA80F80C
:1058E00009EB05001FFA80F916E0444502DB544637
:1058F000A81985B24D4500DB14E0002000903A78ED
:10590000334629462046FFF7F5FE304606EBD071B8
:1059100004EB61018CB27F1C38787E2802DC387879
:105920002028E2DA00BFBDE8F88F000001B5BDF81D
:1059300000000090BDF800000149088008BD00008B
:105940000000086001B5BDF800000090BDF800003F
:105950000149088008BD0000FEFF07600248008979
:105960000249088070470000B4040024FEFF07606D
:10597000024A1080921C118070470000FEFF0760F1
:1059800018B5044606480094008B401E83B20448B4
:10599000C08A401E82B20021084600F05FF918BD9F
:1059A000C404002470B503460C4600210020364D87
:1059B0002D6825F08055344E356001E04D1CA9B2AC
:1059C000314D2D6805F000551DB141F6FF75A94216
:1059D000F4DB41F6FF75A94201D1012052E02A4DC6
:1059E00028352D6825F07C75274E283635603546DC
:1059F0002D6845EA04553560234D40352D686FF319
:105A00000805214E4036356035462D685E1E35430B
:105A10001D4E4036356035462D6825F0FE45356013
:105A200035462E68551E46EA0565174E40363560E8
:105A3000154D2C352D6825F47065134E2C363560C8
:105A400035462D68356035462D68356035462D68FC
:105A500045F0807535600C4D2D6845F080550A4E37
:105A6000356001E04D1CA9B2074D2D6805F00055C9
:105A70001DB941F6FF75A942F4DB41F6FF75A94255
:105A800000D1022070BD0000004402582DE9F04F03
:105A900004460D4616464FF0000CDFF8349199F895
:105AA0001590B9F1000F04D02046294632461F4612
:105AB00011E02846DFF81891D9F80490A9EB0609FF
:105AC000A9F101011A46DFF80891D9F80490A9EB71
:105AD0000409A9F10107DFF8F890B9F80090A2EBEA
