:020000040800F2
:10000000309506245D04000881040008830400087C
:10001000BD4A0008870400088904000800000000A9
:10002000000000000000000000000000990300082C
:100030008D04000800000000F503000829500008A6
:100040009304000893040008930400089304000834
:100050009304000893040008930400089304000824
:100060009304000893040008930400089304000814
:100070009304000893040008930400089304000804
:1000800093040008930400089304000893040008F4
:1000900093040008930400089304000893040008E4
:1000A00093040008930400089304000893040008D4
:1000B0009304000893040008895200089304000880
:1000C00093040008930400089304000893040008B4
:1000D000930400089D54000893040008930400084A
:1000E0009304000893040008000000009304000833
:1000F0009304000893040008930400089304000884
:100100009304000893040008930400089304000873
:100110009304000893040008930400089304000863
:100120009304000893040008930400089304000853
:100130009304000893040008930400089304000843
:1001400000000000000000000000000000000000AF
:100150009304000893040008930400089304000823
:100160009304000893040008930400089304000813
:1001700093040008930400089304000800000000A2
:1001800093040008930400089304000893040008F3
:1001900093040008930400089304000893040008E3
:1001A00093040008930400089304000893040008D3
:1001B00093040008930400089304000893040008C3
:1001C00093040008930400089304000893040008B3
:1001D00093040008930400089304000893040008A3
:1001E0009304000893040008930400089304000893
:1001F0009304000893040008930400089304000883
:100200009304000893040008930400089304000872
:100210009304000893040008930400089304000862
:1002200093040008930400089304000800000000F1
:1002300093040008930400080000000093040008E1
:100240009304000893040008930400089304000832
:100250009304000893040008930400089304000822
:100260009304000893040008930400089304000812
:1002700093040008930400089304000800000000A1
:100280009304000800000000930400080000000030
:10029000000000009304000800F002F800F06DF880
:1002A0000AA090E8000C82448344AAF10107DA45D1
:1002B00001D100F062F8AFF2090EBAE80F0013F0B6
:1002C000010F18BFFB1A43F001031847408E0000CE
:1002D000608E00000A444FF0000C10F8013B13F050
:1002E000070408BF10F8014B1D1108BF10F8015B8F
:1002F000641E05D010F8016B641E01F8016BF9D182
:1003000013F0080F1EBF10F8014BAD1C0C1B09D1D8
:100310006D1E58BF01F801CBFAD505E014F8016B4A
:1003200001F8016B6D1EF9D59142D6D370470000DC
:100330000023002400250026103A28BF78C1FBD8EE
:10034000520728BF30C148BF0B607047642900F0D6
:100350001181752900F00E81782900F04781632909
:1003600000F0AA83732900F0AF83002070471FB507
:1003700008F0DEFD1FBD10B510BD00F0F1FB114609
:10038000FFF7F5FF05F07EFB00F00FFC03B4FFF76D
:10039000F2FF03BC05F0DFF92D4B19680868B0E8DF
:1003A000F04F80F30988BFF36F8F4FF0000080F3A8
:1003B000118870470000000008480068006880F35A
:1003C00008884FF0000080F3148862B661B6BFF36E
:1003D0004F8FBFF36F8F00DF00BF00BF08ED00E05D
:1003E000DFF80C00016841F470010160704700BF44
:1003F00088ED00E0EFF30980BFF36F8F144B1A68AC
:100400001EF0100F08BF20ED108A20E9F04F106099
:1004100009B44FF0500072B680F31188BFF34F8FCC
:10042000BFF36F8F62B607F04DFF4FF0000080F30F
:10043000118809BC19680868B0E8F04F1EF0100F69
:1004400008BFB0EC108A80F30988BFF36F8F704744
:100450009C010024EFF3058070470000DFF84000A6
:10046000016841F470010160BFF34F8FDFF8340081
:10047000016821F040410160BFF36F8F0A480047D7
:10048000FEE7FEE7FEE7FEE7FEE7FEE7FEE7FEE744
:10049000FEE7FEE705480649044A064B70470000A0
:1004A00088ED00E034EF00E099020008308D06246A
:1004B00030950624308D0624704700000FB404499F
:1004C00010B503AA029800F003FB10BC5DF814FB02
:1004D0000C00002470B5044685690068C10601D58A
:1004E000302600E02026C00707D070BDD4E90121E6
:1004F00030469047206A401C20626D1EF6D570BDC4
:1005000070B5044685690078C00707D170BDD4E98D
:10051000012120209047206A401C20626D1EF6D5E4
:1005200070BD70B50C460546012A05D028788006B6
:1005300000D5EA69002302E0012305E05B1C934239
:1005400002D2E05C0028F9D1A869E618C01AA861B7
:10055000286A184428622846FFF7BCFF04E0D5E962
:10056000012114F8010B9047B442F8D32846FFF755
:10057000C7FF70BD2DE9F0410646002410687529BB
:10058000314616A510D0AFF30080002802DA4042B1
:1005900013A507E031688A0701D512A502E04907D3
:1005A00004D511A5012401E0AFF3008000210A2247
:1005B00006F1240709E0B0FBF2FCB0FBF2F302FB0A
:1005C0001C00303078541846491C0028F3D12346CB
:1005D0002A463046BDE8F04100F0F2B900000000C4
:1005E0002D0000002B0000002000000070B5044624
:1005F0000D4621461068AFF300802188090502D519
:100600000F4A7A4402E00E4A7A440E32002104F185
:10061000240305E000F00F060009965D5E54491CB6
:100620000028F7D120780023000704D5702D02D0D0
:1006300009B1022311322046BDE8704000F0C0B974
:10064000348900002DE9F05F894604464FF0000A26
:10065000DFF874B1FB44C0F820A02046E168884769
:10066000002874D0252806D0D4E901219047206ABB
:10067000401C2062F1E700265F462046E16888477B
:100680002028054607DB312D05D2781910F8200CFB
:1006900008B10643F1E7B00701D526F00406C4F817
:1006A0001CA00027C4F818A02A2D09D0284605F060
:1006B0004BF838B304EB8708303DC8F8185019E000
:1006C00059F8041B204604EB87029161E1688847D2
:1006D000012F054618D1E069002820DA26F020060F
:1006E0001DE0D8F8180000EB800005EB4000303822
:1006F000C8F818002046E1688847054605F024F848
:100700000028EED1012F0AD02E2D08D12046E16815
:1007100088477F1C0546022F46F02006C4DBA069EF
:10072000002803DA404246F00106A061F00701D03C
:1007300026F010066C2D0BD0682D09D04C2D39D029
:100740006A2D35D0742D35D07A2D33D016E038E0AF
:10075000E1682F4620468847B842054609D16C2FEC
:1007600026D04FF48060E16806432046884705465E
:1007700004E06C2F1AD04FF4807006430DB3A5F13E
:100780004100192802D8203546F400664A46294619
:10079000204626604E46FFF7D9FD80B101280BD0D8
:1007A000F61D26F0070000F1080956E74020E4E7AF
:1007B0008020D8E70020D6E706F104094DE7284657
:1007C00052E7206ABDE8F09F0A890000032A40F240
:1007D000308010F0030C00F0158011F8013BBCF1E3
:1007E000020F624498BF11F801CB00F8013B38BFFB
:1007F00011F8013BA2F1040298BF00F801CB38BF09
:1008000000F8013B11F0030300F07481083AC0F0D6
:10081000088051F8043B083A51F804CBA0E80810CE
:10082000F5E7121D5CBF51F8043B40F8043BAFF301
:100830000080D20724BF11F8013B11F801CB48BF5B
:1008400011F8012B24BF00F8013B00F801CB48BF91
:1008500000F8012B704702F0FF0343EA032242EA4B
:10086000024200F002B84FF000020429C0F01280EA
:1008700010F0030C00F01B80CCF1040CBCF1020F53
:1008800018BF00F8012BA8BF20F8022BA1EB0C0128
:1008900000F00DB85FEAC17C24BF00F8012B00F81E
:1008A000012B48BF00F8012B70474FF0000200B544
:1008B000134694469646203922BFA0E80C50A0E883
:1008C0000C50B1F12001BFF4F7AF090728BFA0E831
:1008D0000C5048BF0CC05DF804EB890028BF40F8FD
:1008E000042B08BF704748BF20F8022B11F0804F3F
:1008F00018BF00F8012B704710B5044610F0030F25
:1009000008BF11F0030F40F015804FF0013E121F99
:10091000C0F20E8051F8043BA3EB0E0C2CEA030C42
:100920001CEACE1C08BF40F8043BF0D0A1F1040142
:1009300002F10402521E08DB11F8013B002B00F803
:10094000013BF7D11146FFF78EFF204610BD000096
:100950004FF0013C50F8042B51F8043B9A4215D15A
:10096000A2EB0C03934313EACC130BD150F8042BE6
:1009700051F8043B9A4209D1A2EB0C03934313EACA
:10098000CC13E7D04FF00000704700BFD01A01BA77
:10099000B1FA81F101F0180122FA01F0CB40C1F166
:1009A0002001DBB2C0B2C01A2CFA01F3D11A914374
:1009B00011EAC311E6D1704770477047704770471E
:1009C0002DE9F0470D4699469246044600F1240869
:1009D0000168880604D5E06921F01001216000E07B
:1009E0000120A84201DD471B00E00027A1697A1918
:1009F00002EB0900081AA0612078C00602D4204644
:100A0000FFF768FD002608E0D4E901211AF8060086
:100A10009047206A401C761C20624E45F4DB20780B
:100A2000C0060AD52046FFF755FD06E0D4E90121AE
:100A300030209047206A401C2062381EA7F1010731
:100A4000F4DC07E0D4E9012118F805009047206A9A
:100A5000401C2062281EA5F10105F3DC2046FFF7AB
:100A60004FFD2078000602D50220BDE8F087012066
:100A7000FBE7000001694A1C02610878704700B575
:100A80008FB0CDE901310021059105497944CDE9C7
:100A9000031011466846FFF7D5FD0FB000BD0000FA
:100AA000E5FFFFFF10B5436913B1AFF3008001E02C
:100AB000FFF737FD012010BD127800F124010A7004
:100AC00000224A700122EDE711684FF0FF32E9E79A
:100AD000074B70B50D467B44FFF7D1FF044628460F
:100AE00000F03AF810B14FF0FF3070BD204670BDF5
:100AF0008F4F000010B5203AC0F00B80B1E81850BD
:100B0000203AA0E81850B1E81850A0E81850BFF4F7
:100B1000F5AF5FEA027C24BFB1E81850A0E8185096
:100B200044BF18C918C0BDE810405FEA827C24BFEA
:100B300051F8043B40F8043B08BF7047D20728BF78
:100B400031F8023B48BF11F8012B28BF20F8023BC7
:100B500048BF00F8012B7047007B00F08000704711
:100B6000754600F02BF8AE4605006946534620F066
:100B70000700854618B020B5FFF78CFCBDE8204083
:100B80004FF000064FF000074FF000084FF0000B49
:100B900021F00701AC46ACE8C009ACE8C009ACE8FC
:100BA000C009ACE8C0098D46704710B50446AFF3E4
:100BB00000802046BDE81040FFF7E8BB00487047C2
:100BC000D08C062410B504F077F904F027F9034817
:100BD000006840F004000149086010BD9CEF00E08F
:100BE00030B5CC1000F1200353F824304C07E50E4B
:100BF0000F24AC40A343CD1000F1200444F825306D
:100C0000CC1000F1200353F824304C07E40E02FA14
:100C100004F42343CD1000F1200444F8253030BD06
:100C200002461069084008B1012070470020FCE727
:100C300002F001030BB1018300E0418370472DE90D
:100C4000F0470C46DDE90867002100258C4600BF0F
:100C500060E04FF0010808FA01F504EA050CAC4524
:100C600057D1D0F800804FEA410A4FF0030909FA42
:100C70000AF928EA0908C0F80080D0F800804FEA95
:100C8000410902FA09F948EA0908C0F80080012A76
:100C900001D0022A27D1D0F808804FEA410A4FF04C
:100CA000030909FA0AF928EA0908C0F80880D0F807
:100CB00008804FEA410906FA09F948EA0908C0F82C
:100CC0000880D0F804904FF0010808FA01F829EAEA
:100CD0000809C0F80490D0F8048003FA01F948EA42
:100CE0000908C0F80480D0F80C804FEA410A4FF0A0
:100CF000030909FA0AF928EA0908C0F80C80D0F8B3
:100D00000C804FEA410907FA09F948EA0908C0F8D6
:100D10000C80491C10299CD3BDE8F08710B504460F
:100D200002492046FFF7C1FD10BD000074CE05004A
:100D300070B5044600260D4805880D48006818B1B6
:100D4000204603F0C5F90FE00848408845430021DC
:100D5000084603F003F903F0A9F9002602E005496B
:100D60000C80761CAE42FAD370BD0000E002002475
:100D7000F00200240000086010B504466048847149
:100D80006048006850B1204603F028FA5D48C08AE8
:100D90005B4908805B48008B488010BD002C58D10F
:100DA000F020574908804FF4A0704880084680889A
:100DB00045F21051884210D14FF43050504908810B
:100DC0004FF4285048814FF42C5088814FF4F07034
:100DD00008804FF4487048801AE04948808841F6FE
:100DE000631188420DD12C20454908812B20488170
:100DF0002A2088814FF4F07008804FF448704880B2
:100E000006E02C203E4908812A2048812B20888139
:100E10003B48808845F21031884205D038488088A8
:100E200047F29671884206D14FF4A0703449088089
:100E30004FF4F07048803248808849F606018842B5
:100E400058D14FF4F0702E4908804FF44870488014
:100E500050E04FF4A0702A490880F02048800846EE
:100E6000808845F21051884210D14FF43050244907
:100E700008814FF4285048814FF42C5088814FF45A
:100E8000487008804FF4F070488020E01C4880884B
:100E900041F66311884205D01948808849F6060159
:100EA00088420DD12C20164908812A2048812B2008
:100EB00088814FF4487008804FF4F070488006E055
:100EC0002C200F4908812A2048812B2088810C483A
:100ED000808845F21031884205D00948808847F261
:100EE0009671884206D14FF4F070054908804FF49E
:100EF000A0704880002002F011FF00BF4DE7000005
:100F0000E0020024F00200241CB503F011FDFE49AC
:100F100088800846808818B103F01AFA02F070BE83
:100F2000FA48006840F00200F84908600846006886
:100F300040F018000860F5480C38006840F4805014
:100F4000F2490C390860012000900023024620215C
:100F50000190EF48FFF773FE0120032100230222D6
:100F6000CDE900104EF2B371EA48FFF768FE0120A8
:100F7000032100230222CDE900104FF68071E648DC
:100F8000FFF75DFE0C220021E248FFF729FE0C224C
:100F90000121E048FFF724FE0C220421DD48FFF781
:100FA0001FFE0C220521DB48FFF71AFE0C22072149
:100FB000D848FFF715FE0C220821D648FFF710FE8F
:100FC0000C220921D348FFF70BFE0C220A21D1483D
:100FD000FFF706FE0C220D21CE48FFF701FE0C2282
:100FE0000E21CC48FFF7FCFD0C220F21C948FFF76A
:100FF000F7FD0C220721C848FFF7F2FD0C2208215B
:10100000C548FFF7EDFD0C220921C348FFF7E8FDB5
:101010000C220A21C048FFF7E3FD0C220B21BE4839
:10102000FFF7DEFD0C221146BB48FFF7D9FD0C226D
:101030000D21B948FFF7D4FD0C220E21B648FFF769
:10104000CFFD0C220F21B448FFF7CAFD0020B349A1
:1010500008604860B2490860B048006840F48050B9
:10106000AE4908600846006840F4804008600846C1
:10107000006840F010000860084640684860084674
:10108000406840F00F0048600846406840F49C40CB
:101090004860A3480068C1F804010846D0F804017C
:1010A00040F00F00C1F804010846D0F8040140F4F4
:1010B0007060C1F804010846006840F00100086053
:1010C0000846006840F000400860322004F0F2FB5F
:1010D000D32002F0DFFF02F0EFFD8B49888002F0A1
:1010E000EBFD8949888002F0E7FD87498880084642
:1010F00080884FF6FF7101EA00208349888002F062
:10110000DBFD8149898808437F49888008468088BB
:1011100049F2413188427CD0042002F0BBFF02F04A
:10112000CBFD7949888002F0C7FD7749888002F0BD
:10113000C3FD75498880084680884FF6FF7101EA33
:1011400000207149888002F0B7FD6F498988084303
:101150006D4988800846808848F25251884203D100
:1011600047F28970684988806748808847F28971AA
:101170008842D0D0D42002F08DFF02F09DFD62495C
:10118000888002F099FD6049888002F095FD5E49F3
:101190008880084680884FF6FF7101EA00205A498E
:1011A000888002F089FD584989880843564988801B
:1011B0000846808845F210318842ACD0D32002F036
:1011C00069FF02F079FD5049888002F075FD4E49B3
:1011D000888002F071FD4C498880084680884FF66F
:1011E000FF7101EA00204849888002F065FD464908
:1011F00089880843444988800846808847F2967168
:10120000884288D055214FF4704002F059FFAA213E
:1012100000E08DE04FF2010002F052FF52214FF248
:10122000020002F04DFF08214FF2030002F048FFD8
:1012300001214FF2040002F043FF4FF4454002F059
:1012400029FF02F039FD30498880084680884FF632
:10125000FF7101EA00202C4988804CF2015002F015
:1012600019FF02F029FD284989880843264988800A
:10127000052004F01FFB2448808845F21051884265
:1012800056D0D32002F006FF02F016FD1E498880DA
:1012900002F012FD1C49888002F00EFD1A49888078
:1012A000084680884FF6FF7101EA002016498880C1
:1012B00002F002FD144989880843134988800846D2
:1012C000808849F60601884232D0A12002F0E2FE71
:1012D00002F0F2FC0C49888002F0EEFC0A4988809A
:1012E000084680884FF6FF7101EA00200649888091
:1012F00002F0E2FC044989880843034988800846D3
:10130000808845F261710DE0E0020024E04402585B
:1013100000040258000C025800100258004000520D
:1013200004410052884203D141F66310FE4988808F
:10133000FD488188FDA0FFF7C1F8FB48808849F28D
:10134000413188427ED1CF2002F0A4FE002002F07D
:1013500095FEC12002F092FE302002F08FFEED20BB
:1013600002F098FE642002F089FE032002F086FE5F
:10137000122002F083FE812002F080FEE82002F0BD
:1013800089FE852002F07AFE102002F077FE7A2096
:1013900002F074FECB2002F07DFE392002F06EFEDA
:1013A0002C2002F06BFE002002F068FE342002F0D8
:1013B00065FE022002F062FEF72002F06BFE2020A4
:1013C00002F05CFEEA2002F065FE002002F056FE0C
:1013D000002002F053FEC02002F05CFE1B2002F051
:1013E0004DFEC12002F056FE012002F047FEC5204E
:1013F00002F050FE302002F041FE302002F03EFEAE
:10140000C72002F047FEB72002F038FE362002F077
:1014100041FE482002F032FE3A2002F03BFE552009
:1014200002F02CFEB12002F035FE002002F026FE74
:101430001A2002F023FEB62002F02CFE0A2002F051
:101440001DFE00E096E0A22002F018FEF22002F05D
:1014500021FE002002F012FE262002F01BFE0120D9
:1014600002F00CFEE02002F015FE0F2002F006FE56
:101470002A2002F003FE282002F000FE082002F0DD
:10148000FDFD0E2002F0FAFD082002F0F7FD5420C9
:1014900002F0F4FDA92002F0F1FD432002F0EEFD80
:1014A0000A2002F0EBFD0F2002F0E8FD002002F020
:1014B000E5FD002002F0E2FD002002F0DFFD00204B
:1014C00002F0DCFDE12002F0E5FD002002F0D6FD97
:1014D000152002F0D3FD172002F0D0FD072002F006
:1014E000CDFD112002F0CAFD062002F0C7FD2B2021
:1014F00002F0C4FD562002F0C1FD3C2002F0BEFD0A
:10150000052002F0BBFD102002F0B8FD0F2002F014
:10151000B5FD3F2002F0B2FD3F2002F0AFFD0F20ED
:1015200002F0ACFD2B2002F0B5FD002002F0A6FD7C
:10153000002002F0A3FD012002F0A0FD3F2002F0F8
:101540009DFD2A2002F0A6FD002002F097FD00205C
:1015500002F094FD002002F091FDEF2002F08EFDDC
:10156000112002F097FD782004F0A4F9292002F060
:1015700091FDD3E46C48808847F2897188427CD120
:10158000112002F087FD782004F094F9362002F053
:1015900081FD002002F072FD3A2002F07BFD052063
:1015A00002F06CFDB22002F075FD0C2002F066FD29
:1015B0000C2002F063FD002002F060FD332002F0F9
:1015C0005DFD332002F05AFDB72002F063FD3520A7
:1015D00002F054FDBB2002F05DFD322002F04EFD12
:1015E000C02002F057FD0C2002F048FDC22002F09E
:1015F00051FD012002F042FDC32002F04BFD1020FE
:1016000002F03CFDC42002F045FD202002F036FD32
:10161000C62002F03FFD0F2002F030FDD02002F086
:1016200039FDA42002F02AFDA12002F027FDE020D0
:1016300002F030FDD02002F021FD002002F01EFD5E
:10164000022002F01BFD072002F018FD0A2002F024
:1016500015FD282002F012FD322002F00FFD44207B
:1016600002F00CFD422002F009FD062002F006FD0A
:101670000E2002F003FD122000E062E002F0FEFC0A
:10168000142002F0FBFC172002F0F8FCE12002F02D
:1016900001FDD02002F0F2FC002002F0EFFC02205D
:1016A00002F0ECFC072002F0E9FC0A2002F0E6FC64
:1016B000282002F0E3FC312002F0E0FC542002F08C
:1016C000DDFC472002F0DAFC0E2002F0D7FC1C20E3
:1016D00002F0D4FC172002F0D1FC1B2002F0CEFC5B
:1016E0001E2002F0CBFC2A2002F0D4FC002002F0E5
:1016F000C5FC002002F0C2FC002002F0BFFCEF207D
:1017000002F0BCFC2B2002F0C5FC002002F0B6FC6D
:10171000002002F0B3FC012002F0B0FC3F2002F0F8
:10172000ADFC29200AE00000E0020024204C4344E4
:101730002049443A25780D0A0000000002F0AAFC76
:1017400017E7FE48808845F21031884240F07C87D8
:10175000ED2002F09FFC012002F090FCFE2002F040
:101760008DFCEE2002F096FCDE2002F087FC2120AA
:1017700002F084FCF12002F08DFC012002F07EFCDE
:10178000DF2002F087FC102002F078FCC42002F079
:1017900081FC8F2002F072FCC62002F07BFC00204E
:1017A00002F06CFCE22002F069FCE22002F066FC30
:1017B000E22002F063FCBF2002F06CFCAA2002F0E1
:1017C0005DFCB02002F066FC0D2002F057FC00200A
:1017D00002F054FC0D2002F051FC002002F04EFCFF
:1017E000112002F04BFC002002F048FC192002F00E
:1017F00045FC002002F042FC212002F03FFC0020CA
:1018000002F03CFC2D2002F039FC002002F036FCF6
:101810003D2002F033FC002002F030FC5D2002F09D
:101820002DFC002002F02AFC5D2002F027FC0020A5
:1018300002F024FCB12002F02DFC802002F01EFCFE
:10184000002002F01BFC8B2002F018FC002002F0AC
:1018500015FC962002F012FC002002F00FFCB220D2
:1018600002F018FC002002F009FC002002F006FC47
:10187000022002F003FC002002F000FC032002F032
:10188000FDFB002002F0FAFBB32002F003FC002075
:1018900002F0F4FB002002F0F1FB002002F0EEFB6E
:1018A000002002F0EBFB002002F0E8FB002002F039
:1018B000E5FB002002F0E2FB002002F0DFFB00204D
:1018C00002F0DCFB002002F0D9FB002002F0D6FB86
:1018D000002002F0D3FB002002F0D0FB002002F039
:1018E000CDFB002002F0CAFB002002F0C7FB002065
:1018F00002F0C4FB002002F0C1FB002002F0BEFB9E
:10190000002002F0BBFB002002F0B8FB002002F038
:10191000B5FB002002F0B2FB002002F0AFFBB420C8
:1019200002F0B8FB8B2002F0A9FB002002F0A6FB1E
:10193000962002F0A3FB002002F0A0FBA12002F001
:101940009DFB002002F09AFBB52002F0A3FB0220D1
:1019500002F094FB002002F091FB032002F08EFBCA
:10196000002002F08BFB042002F088FB002002F034
:1019700085FBB62002F08EFB002002F07FFB0020EA
:1019800002F07CFBB72002F085FB002002F076FB22
:10199000002002F073FB3F2002F070FB002002F0F9
:1019A0006DFB5E2002F06AFB002002F067FB642002
:1019B00002F064FB002002F061FB8C2002F05EFB71
:1019C000002002F05BFBAC2002F058FB002002F08C
:1019D00055FBDC2002F052FB002002F04FFB702090
:1019E00002F04CFB002002F049FB902002F046FB85
:1019F000002002F043FBEB2002F040FB002002F04D
:101A00003DFBDC2002F03AFB002002F037FBB8205F
:101A100002F040FB002002F031FB002002F02EFB20
:101A2000002002F02BFB002002F028FB002002F037
:101A300025FB002002F022FB002002F01FFB00200B
:101A400002F01CFBBA2002F025FB242002F016FB5A
:101A5000002002F013FB002002F010FB002002F037
:101A60000DFBC12002F016FB202002F007FB002036
:101A700002F004FB542002F001FB002002F0FEFA09
:101A8000FF2002F0FBFA002002F0F8FAC22002F078
:101A900001FB0A2002F0F2FA002002F0EFFA042023
:101AA00002F0ECFA002002F0E9FAC32002F0F2FAA8
:101AB0003C2002F0E3FA002002F0E0FA3A2002F0C3
:101AC000DDFA002002F0DAFA392002F0D7FA00201D
:101AD00002F0D4FA372002F0D1FA002002F0CEFA58
:101AE0003C2002F0CBFA002002F0C8FA362002F0C7
:101AF000C5FA002002F0C2FA322002F0BFFA00203C
:101B000002F0BCFA2F2002F0B9FA002002F0B6FA77
:101B10002C2002F0B3FA002002F0B0FA292002F0E3
:101B2000ADFA002002F0AAFA262002F0A7FA00205F
:101B300002F0A4FA242002F0A1FA01E0E00200245D
:101B4000002002F09BFA242002F098FA002002F014
:101B500095FA232002F092FA002002F08FFA3C203E
:101B600002F08CFA002002F089FA362002F086FAA0
:101B7000002002F083FA322002F080FA002002F006
:101B80007DFA2F2002F07AFA002002F077FA2C205A
:101B900002F074FA002002F071FA292002F06EFAC5
:101BA000002002F06BFA262002F068FA002002F012
:101BB00065FA242002F062FA002002F05FFA242085
:101BC00002F05CFA002002F059FA232002F056FAE3
:101BD000002002F053FAC42002F05CFA622002F006
:101BE0004DFA002002F04AFA052002F047FA0020E0
:101BF00002F044FA842002F041FA002002F03EFA9A
:101C0000F02002F03BFA002002F038FA182002F02F
:101C100035FA002002F032FAA42002F02FFA002058
:101C200002F02CFA182002F029FA002002F026FA1D
:101C3000502002F023FA002002F020FA0C2002F0DB
:101C40001DFA002002F01AFA172002F017FA0020FD
:101C500002F014FA952002F011FA002002F00EFAB8
:101C6000F32002F00BFA002002F008FAE62002F05E
:101C700005FA002002F002FAC52002F00BFA322029
:101C800002F0FCF9002002F0F9F9442002F0F6F924
:101C9000002002F0F3F9652002F0F0F9002002F0D4
:101CA000EDF9762002F0EAF9002002F0E7F9882049
:101CB00002F0E4F9002002F0E1F9C62002F0EAF9AE
:101CC000202002F0DBF9002002F0D8F9172002F002
:101CD000D5F9002002F0D2F9012002F0CFF900205E
:101CE00002F0CCF9C72002F0D5F9002002F0C6F9C5
:101CF000002002F0C3F9002002F0C0F9002002F039
:101D0000BDF9C82002F0C6F9002002F0B7F90020A2
:101D100002F0B4F9002002F0B1F9002002F0AEF9AF
:101D2000C92002F0B7F9002002F0A8F9002002F063
:101D3000A5F9002002F0A2F9002002F09FF900208E
:101D400002F09CF9002002F099F9002002F096F9C7
:101D5000002002F093F9002002F090F9002002F038
:101D60008DF9002002F08AF9002002F087F90020A6
:101D700002F084F9002002F081F9002002F07EF9DF
:101D8000002002F07BF9E02002F084F9162002F036
:101D900075F9002002F072F91C2002F06FF90020A2
:101DA00002F06CF9212002F069F9002002F066F9D6
:101DB000362002F063F9002002F060F9462002F0BC
:101DC0005DF9002002F05AF9522002F057F9002084
:101DD00002F054F9642002F051F9002002F04EF9AB
:101DE0007A2002F04BF9002002F048F98B2002F033
:101DF00045F9002002F042F9992002F03FF9002055
:101E000002F03CF9A82002F039F9002002F036F97E
:101E1000B92002F033F9002002F030F9C42002F0BA
:101E20002DF9002002F02AF9CA2002F027F900203B
:101E300002F024F9D22002F021F9002002F01EF96C
:101E4000D92002F01BF9002002F018F9E02002F07E
:101E500015F9002002F012F9F32002F00FF900202A
:101E600002F00CF9E12002F015F9162002F006F953
:101E7000002002F003F91C2002F000F9002002F01B
:101E8000FDF8222002F0FAF8002002F0F7F83620E0
:101E900002F0F4F8002002F0F1F8452002F0EEF82C
:101EA000002002F0EBF8522002F0E8F8002002F0E7
:101EB000E5F8642002F0E2F8002002F0DFF87A2072
:101EC00002F0DCF8002002F0D9F88B2002F0D6F8FE
:101ED000002002F0D3F8992002F0D0F8002002F0A0
:101EE000CDF8A82002F0CAF8002002F0C7F8B92007
:101EF00002F0C4F8002002F0C1F8C42002F0BEF8DD
:101F0000002002F0BBF8CA2002F0B8F8002002F06E
:101F1000B5F8D22002F0B2F8002002F0AFF8D820D5
:101F200002F0ACF8002002F0A9F8E02002F0A6F8D8
:101F3000002002F0A3F8F32002F0A0F8002002F045
:101F40009DF8E22002F0A6F8052002F097F80020A4
:101F500002F094F80B2002F091F8002002F08EF8C5
:101F60001B2002F08BF8002002F088F8342002F0E9
:101F700085F8002002F082F8442002F07FF800206B
:101F800002F07CF84F2002F079F8002002F076F899
:101F9000612002F073F8002002F070F8792002F05E
:101FA0006DF8002002F06AF8882002F067F800203F
:101FB00002F064F8972002F061F8002002F05EF869
:101FC000A62002F05BF8002002F058F8B72002F0DB
:101FD00055F8002002F052F8C22002F04FF800201D
:101FE00002F04CF8C72002F049F8002002F046F851
:101FF000D12002F043F8002002F040F8D62002F091
:102000003DF8002002F03AF8DD2002F037F8002019
:1020100002F034F8F32002F031F8002002F02EF83C
:10202000E32002F037F8052002F028F8002002F043
:1020300025F80A2002F022F8002002F01FF81C20E8
:1020400002F01CF8002002F019F8332002F016F814
:10205000002002F013F8442002F010F8002002F0F3
:102060000DF8502002F00AF8002002F007F8622074
:1020700002F004F8002002F001F8782001F0FEFFE1
:10208000002001F0FBFF882001F0F8FF002001F0A4
:10209000F5FF972001F0F2FF002001F0EFFFA620EE
:1020A00001F0ECFF002001F0E9FFB72001F0E6FFAE
:1020B000002001F0E3FFC22001F0E0FF002001F06A
:1020C000DDFFC72001F0DAFF002001F0D7FFD120AB
:1020D00001F0D4FF002001F0D1FFD52001F0CEFFA8
:1020E000002001F0CBFFDD2001F0C8FF002001F04F
:1020F000C5FFF32001F0C2FF002001F0BFFFE42084
:1021000001F0C8FF012001F0B9FF002001F0B6FF87
:10211000012001F0B3FF002001F0B0FF022001F028
:10212000ADFF002001F0AAFF2A2001F0A7FF002048
:1021300001F0A4FF3C2001F0A1FF002001F09EFF70
:102140004B2001F09BFF002001F098FF5D2001F083
:1021500095FF002001F092FF742001F08FFF002016
:1021600001F08CFF842001F089FF002001F086FF40
:10217000932001F083FF002001F080FFA22001F0F6
:102180007DFF002001F07AFFB32001F077FF0020EF
:1021900001F074FFBE2001F071FF002001F06EFF1E
:1021A000C42001F06BFF002001F068FFCD2001F09A
:1021B00065FF002001F062FFD32001F05FFF0020E7
:1021C00001F05CFFDD2001F059FF002001F056FF17
:1021D000F32001F053FF002001F050FFE52001F053
:1021E00059FF002001F04AFF002001F047FF0020C6
:1021F00001F044FF002001F041FF022001F03EFF0A
:10220000002001F03BFF292001F038FF002001F001
:1022100035FF3C2001F032FF002001F02FFF4B2062
:1022200001F02CFF002001F029FF5D2001F026FFC6
:10223000002001F023FF742001F020FF002001F0B6
:102240001DFF842001F01AFF002001F017FF9320EA
:1022500001F014FF002001F011FFA22001F00EFF99
:10226000002001F00BFFB32001F008FF002001F077
:1022700005FFBE2001F002FF002001F0FFFEC42098
:1022800001F0FCFE002001F0F9FECD2001F0F6FE89
:10229000002001F0F3FED32001F0F0FE002001F059
:1022A000EDFEDC2001F0EAFE002001F0E7FEF32065
:1022B00001F0E4FE002001F0E1FEE62001F0EAFE7C
:1022C000112001F0DBFE002001F0D8FE342001F0E7
:1022D000D5FE002001F0D2FE562001F0CFFE0020F6
:1022E00001F0CCFE762001F0C9FE002001F0C6FE10
:1022F000772001F0C3FE002001F0C0FE662001F04F
:10230000BDFE002001F0BAFE882001F0B7FE0020DB
:1023100001F0B4FE992001F0B1FE002001F0AEFE04
:10232000BB2001F0ABFE002001F0A8FE992001F0D7
:10233000A5FE002001F0A2FE662001F09FFE002015
:1023400001F09CFE552001F099FE002001F096FE60
:10235000552001F093FE002001F090FE452001F091
:102360008DFE002001F08AFE432001F087FE002050
:1023700001F084FE442001F081FE002001F07EFE89
:10238000E72001F087FE322001F078FE002001F006
:1023900075FE552001F072FE002001F06FFE7620E0
:1023A00001F06CFE002001F069FE662001F066FE7F
:1023B000002001F063FE672001F060FE002001F0C4
:1023C0005DFE672001F05AFE002001F057FE8720D5
:1023D00001F054FE002001F051FE992001F04EFE64
:1023E000002001F04BFEBB2001F048FE002001F070
:1023F00045FE992001F042FE002001F03FFE7720CB
:1024000001F03CFE002001F039FE442001F036FED0
:10241000002001F033FE562001F030FE002001F0D4
:102420002DFE232001F02AFE002001F027FE33209C
:1024300001F024FE002001F021FE452001F01EFEE7
:10244000002001F01BFEE82001F024FE002001F036
:1024500015FE002001F012FE992001F00FFE002071
:1024600001F00CFE872001F009FE002001F006FEBD
:10247000882001F003FE002001F000FE772001F02B
:10248000FDFD002001F0FAFD662001F0F7FD0020BF
:1024900001F0F4FD882001F0F1FD002001F0EEFDD7
:1024A000AA2001F0EBFD002001F0E8FDBB2001F0C7
:1024B000E5FD002001F0E2FD992001F0DFFD0020A4
:1024C00001F0DCFD662001F0D9FD002001F0D6FD11
:1024D000552001F0D3FD002001F0D0FD552001F082
:1024E000CDFD002001F0CAFD442001F0C7FD002011
:1024F00001F0C4FD442001F0C1FD002001F0BEFD4B
:10250000552001F0BBFD002001F0B8FDE92001F0ED
:10251000C1FDAA2001F0B2FD002001F0AFFD0020B6
:1025200001F0ACFD002001F0A9FD002001F0B2FD9A
:10253000AA2001F0A3FDCF2001F0ACFD002001F0A6
:102540009DFD002001F09AFD002001F097FD002084
:1025500001F094FD002001F091FD002001F08EFDBE
:10256000002001F08BFD002001F088FD002001F02B
:1025700085FD002001F082FD002001F07FFD00209C
:1025800001F07CFD002001F079FD002001F076FDD6
:10259000002001F073FD002001F070FD002001F02B
:1025A0006DFDF02001F076FD002001F067FD502068
:1025B00001F064FD002001F061FD002001F05EFDEE
:1025C000002001F05BFDF32001F064FD002001F02C
:1025D00055FDF92001F05EFD062001F04FFD1020B1
:1025E00001F04CFD292001F049FD002001F046FDDD
:1025F0003A2001F04FFD552001F040FD112001F07F
:1026000049FD642003F056F9292001F043FD3520EF
:1026100001F040FD002001F031FD512001F03AFDB4
:10262000FF2001F02BFD532001F034FD2C2001F0A0
:1026300025FD552001F02EFD822001F01FFD2C20EC
:1026400001F028FD01F0DCBAFE48808845F2105107
:1026500088427DD155214FF4704001F031FDAA210F
:102660004FF2010001F02CFD52214FF2020001F067
:1026700027FD08214FF2030001F022FD01214FF256
:10268000040001F01DFD0D214FF4304001F018FD54
:102690000D214BF2010001F013FD0D214BF2020060
:1026A00001F00EFD34214FF4364001F009FD3421D4
:1026B0004BF2016001F004FD34214BF2026001F0A5
:1026C000FFFC0D214FF4314001F0FAFC0D214BF2DB
:1026D000011001F0F5FC0D214BF2021001F0F0FCAD
:1026E00034214FF4374001F0EBFC34214BF2017000
:1026F00001F0E6FC34214BF2027001F0E1FC002114
:102700004FF4324001F0DCFC00214BF2012001F0DB
:10271000D7FC00214BF2022001F0D2FC24214FF41F
:10272000384001F0CDFC24214BF6010001F0C8FC3B
:1027300024214BF6020001F0C3FC01214FF43F407D
:1027400001F0BEFC0F214FF4334001F0B9FC00E072
:10275000FDE30F214BF2013001F0B2FC0F214BF2EF
:10276000023001F0ADFC34214FF4394001F0A8FCF7
:1027700034214BF6011001F0A3FC34214BF602107A
:1027800001F09EFC08214FF4354001F099FC08212E
:102790004BF2015001F094FC08214BF2025001F081
:1027A0008FFC03214FF4424001F08AFC24214FF4B6
:1027B0003A4001F085FC24214BF6012001F080FC19
:1027C00024214BF6022001F07BFC00214FF43C4019
:1027D00001F076FC78214BF6014001F071FC0021FC
:1027E0004BF6024001F06CFC00214FF43D4001F03B
:1027F00067FC78214BF6015001F062FC00214BF69A
:10280000025001F05DFC00214FF43E4001F058FC05
:1028100064214BF6016001F053FC00214FF451405C
:1028200001F04EFC33214DF2011001F049FC002172
:102830004DF2021001F044FC34214DF2031001F07E
:102840003FFC00214DF2041001F03AFC3A214DF218
:10285000051001F035FC00214DF2061001F030FCAE
:102860004A214DF2071001F02BFC00214DF2081017
:1028700001F026FC5C214DF2091001F021FC002141
:102880004DF20A1001F01CFC81214DF20B1001F0F9
:1028900017FC00214DF20C1001F012FCA6214DF2A4
:1028A0000D1001F00DFC00214DF20E1001F008FC9E
:1028B000E5214DF20F1001F003FC01214DF2101043
:1028C00001F0FEFB13214DF2111001F0F9FB012183
:1028D0004DF2121001F0F4FB54214DF2131001F0EF
:1028E000EFFB01214DF2141001F0EAFB82214DF2C1
:1028F000151001F0E5FB01214DF2161001F0E0FB8F
:10290000CA214DF2171001F0DBFB02214DF2181025
:1029100001F0D6FB00214DF2191001F0D1FB02218C
:102920004DF21A1001F0CCFB01214DF21B1001F009
:10293000C7FB02214DF21C1001F0C2FB34214DF205
:102940001D1001F0BDFB02214DF21E1001F0B8FB7D
:1029500067214DF21F1001F0B3FB02214DF2201050
:1029600001F0AEFB84214DF2211001F0A9FB022100
:102970004DF2221001F0A4FBA4214DF2231001F02E
:102980009FFB02214DF2241001F09AFBB7214DF27A
:10299000251001F095FB02214DF2261001F090FB6D
:1029A000CF214DF2271001F08BFB02214DF22810B0
:1029B00001F086FBDE214DF2291001F081FB02219E
:1029C0004DF22A1001F07CFBF2214DF22B1001F0A8
:1029D00077FB02214DF22C1001F072FBFE214DF22B
:1029E0002D1001F06DFB03214DF22E1001F068FB5C
:1029F00010214DF22F1001F063FB03214DF2301036
:102A000001F05EFB33214DF2311001F059FB03213F
:102A10004DF2321001F054FB6D214DF2331001F0F4
:102A20004FFB00214FF4524001F04AFB33214DF29D
:102A3000012001F045FB00214DF2022001F040FB96
:102A4000342101E0E00200244DF2032001F038FBC4
:102A500000214DF2042001F033FB3A214DF2052014
:102A600001F02EFB00214DF2062001F029FB4A2146
:102A70004DF2072001F024FB00214DF2082001F067
:102A80001FFB5C214DF2092001F01AFB00214DF2E1
:102A90000A2001F015FB81214DF20B2001F010FB03
:102AA00000214DF20C2001F00BFBA6214DF20D2070
:102AB00001F006FB00214DF20E2001F001FBE521A3
:102AC0004DF20F2001F0FCFA01214DF2102001F02F
:102AD000F7FA13214DF2112001F0F2FA01214DF223
:102AE000122001F0EDFA54214DF2132001F0E8FA22
:102AF00001214DF2142001F0E3FA82214DF215205C
:102B000001F0DEFA01214DF2162001F0D9FACA21B6
:102B10004DF2172001F0D4FA02214DF2182001F0F5
:102B2000CFFA00214DF2192001F0CAFA02214DF22C
:102B30001A2001F0C5FA01214DF21B2001F0C0FA64
:102B400002214DF21C2001F0BBFA34214DF21D2070
:102B500001F0B6FA02214DF21E2001F0B1FA672110
:102B60004DF21F2001F0ACFA02214DF2202001F0BD
:102B7000A7FA84214DF2212001F0A2FA02214DF2A0
:102B8000222001F09DFAA4214DF2232001F098FAB1
:102B900002214DF2242001F093FAB7214DF22520B5
:102BA00001F08EFA02214DF2262001F089FACF21A0
:102BB0004DF2272001F084FA02214DF2282001F085
:102BC0007FFADE214DF2292001F07AFA02214DF23E
:102BD0002A2001F075FAF2214DF22B2001F070FA53
:102BE00002214DF22C2001F06BFAFE214DF22D2036
:102BF00001F066FA03214DF22E2001F061FA102156
:102C00004DF22F2001F05CFA03214DF2302001F04B
:102C100057FA33214DF2312001F052FA03214DF2DF
:102C2000322001F04DFA6D214DF2332001F048FAC7
:102C300000214FF4534001F043FA33214DF20130AB
:102C400001F03EFA00214DF2023001F039FA342150
:102C50004DF2033001F034FA00214DF2043001F05E
:102C60002FFA3A214DF2053001F02AFA00214DF2F7
:102C7000063001F025FA4A214DF2073001F020FA22
:102C800000214DF2083001F01BFA5C214DF20930B1
:102C900001F016FA00214DF20A3001F011FA8121FB
:102CA0004DF20B3001F00CFA00214DF20C3001F026
:102CB00007FAA6214DF20D3001F002FA00214DF283
:102CC0000E3001F0FDF9E5214DF20F3001F0F8F979
:102CD00001214DF2103001F0F3F913214DF21130C2
:102CE00001F0EEF901214DF2123001F0E9F9542121
:102CF0004DF2133001F0E4F901214DF2143001F0EE
:102D0000DFF982214DF2153001F0DAF901214DF29F
:102D1000163001F0D5F9CA214DF2173001F0D0F983
:102D200002214DF2183001F0CBF900214DF219309B
:102D300001F0C6F902214DF21A3001F0C1F901216A
:102D40004DF21B3001F0BCF902214DF21C3001F0B4
:102D5000B7F934214DF21D3001F0B2F902214DF2E4
:102D60001E3001F0ADF967214DF21F3001F0A8F9D6
:102D700002214DF2203001F0A3F984214DF22130DF
:102D800001F09EF902214DF2223001F099F9A421BF
:102D90004DF2233001F094F902214DF2243001F07C
:102DA0008FF9B7214DF2253001F08AF902214DF259
:102DB000263001F085F9CF214DF2273001F080F95E
:102DC00002214DF2283001F07BF9DE214DF229304D
:102DD00001F076F902214DF22A3001F071F9F22169
:102DE0004DF22B3001F06CF902214DF22C3001F044
:102DF00067F9FE214DF22D3001F062F903214DF209
:102E00002E3001F05DF910214DF22F3001F058F90C
:102E100003214DF2303001F053F933214DF23130BE
:102E200001F04EF903214DF2323001F049F96D21E4
:102E30004DF2333001F044F900214FF4544001F0D9
:102E40003FF933214DF2014001F03AF900214DF2F2
:102E5000024001F035F934214DF2034001F030F920
:102E600000214DF2044001F02BF93A214DF20540CA
:102E700001F026F900214DF2064001F021F94A2126
:102E80004DF2074001F01CF900214DF2084001F01D
:102E900017F95C214DF2094001F012F900214DF2C1
:102EA0000A4001F00DF981214DF20B4001F008F9C3
:102EB00000214DF20C4001F003F9A6214DF20D4026
:102EC00001F0FEF800214DF20E4001F0F9F8E52185
:102ED0004DF20F4001F0F4F801214DF2104001F0E5
:102EE000EFF813214DF2114001F0EAF801214DF203
:102EF000124001F0E5F854214DF2134001F0E0F8E2
:102F000001214DF2144001F0DBF882214DF2154011
:102F100001F0D6F801214DF2164001F0D1F8CA2196
:102F20004DF2174001F0CCF802214DF2184001F0AB
:102F3000C7F800214DF2194001F0C2F802214DF20C
:102F40001A4001F0BDF801214DF21B4000E005E3FD
:102F500001F0B6F802214DF21C4001F0B1F8342125
:102F60004DF21D4001F0ACF802214DF21E4001F07F
:102F7000A7F867214DF21F4001F0A2F802214DF29F
:102F8000204001F09DF884214DF2214001F098F895
:102F900002214DF2224001F093F8A4214DF223408A
:102FA00001F08EF802214DF2244001F089F8B7219A
:102FB0004DF2254001F084F802214DF2264001F047
:102FC0007FF8CF214DF2274001F07AF802214DF22F
:102FD000284001F075F8DE214DF2294001F070F82B
:102FE00002214DF22A4001F06BF8F2214DF22B4004
:102FF00001F066F802214DF22C4001F061F8FE214B
:103000004DF22D4001F05CF803214DF22E4001F00D
:1030100057F810214DF22F4001F052F803214DF2E4
:10302000304001F04DF833214DF2314001F048F8C5
:1030300003214DF2324001F043F86D214DF233404F
:1030400001F03EF800214FF4554001F039F83321EA
:103050004DF2015001F034F800214DF2025001F020
:103060002FF834214DF2035001F02AF800214DF2DF
:10307000045001F025F83A214DF2055001F020F8F6
:1030800000214DF2065001F01BF84A214DF2075085
:1030900001F016F800214DF2085001F011F85C2102
:1030A0004DF2095001F00CF800214DF20A5001F0E8
:1030B00007F881214DF20B5001F002F800214DF28A
:1030C0000C5000F0FDFFA6214DF20D5000F0F8FF6E
:1030D00000214DF20E5000F0F3FFE5214DF20F50AC
:1030E00000F0EEFF01214DF2105000F0E9FF132136
:1030F0004DF2115000F0E4FF01214DF2125000F0AA
:10310000DFFF54214DF2135000F0DAFF01214DF2A0
:10311000145000F0D5FF82214DF2155000F0D0FF81
:1031200001214DF2165000F0CBFFCA214DF217508D
:1031300000F0C6FF02214DF2185000F0C1FF00213F
:103140004DF2195000F0BCFF02214DF21A5000F070
:10315000B7FF01214DF21B5000F0B2FF02214DF2EA
:103160001C5000F0ADFF34214DF21D5000F0A8FFBF
:1031700002214DF21E5000F0A3FF67214DF21F50B7
:1031800000F09EFF02214DF2205000F099FF8421B3
:103190004DF2215000F094FF02214DF2225000F038
:1031A0008FFFA4214DF2235000F08AFF02214DF23F
:1031B000245000F085FFB7214DF2255000F080FF2C
:1031C00002214DF2265000F07BFFCF214DF2275017
:1031D00000F076FF02214DF2285000F071FFDE2151
:1031E0004DF2295000F06CFF02214DF22A5000F000
:1031F00067FFF2214DF22B5000F062FF02214DF2E9
:103200002C5000F05DFFFE214DF22D5000F058FFD4
:1032100003214DF22E5000F053FF10214DF22F509C
:1032200000F04EFF03214DF2305000F049FF3321F2
:103230004DF2315000F044FF03214DF2325000F0C6
:103240003FFF6D214DF2335000F03AFF00214FF463
:10325000564000F035FF33214DF2016000F030FFA1
:1032600000214DF2026000F02BFF34214DF203608B
:1032700000F026FF00214DF2046000F021FF3A210A
:103280004DF2056000F01CFF00214DF2066000F0D9
:1032900017FF4A214DF2076000F012FF00214DF2A6
:1032A000086000F00DFF5C214DF2096000F008FF9E
:1032B00000214DF20A6000F003FF81214DF20B6006
:1032C00000F0FEFE00214DF20C6000F0F9FEA62198
:1032D0004DF20D6000F0F4FE00214DF20E6000F0A2
:1032E000EFFEE5214DF20F6000F0EAFE01214DF204
:1032F000106000F0E5FE13214DF2116000F0E0FED9
:1033000001214DF2126000F0DBFE54214DF21360FA
:1033100000F0D6FE01214DF2146000F0D1FE8221B2
:103320004DF2156000F0CCFE01214DF2166000F068
:10333000C7FECA214DF2176000F0C2FE02214DF215
:10334000186000F0BDFE00214DF2196000F0B8FEDB
:1033500002214DF21A6000F0B3FE01214DF21B6014
:1033600000F0AEFE02214DF21C6000F0A9FE3421F7
:103370004DF21D6000F0A4FE02214DF21E6000F02F
:103380009FFE67214DF21F6000F09AFE02214DF270
:10339000206000F095FE84214DF2216000F090FE47
:1033A00002214DF2226000F08BFEA4214DF2236039
:1033B00000F086FE02214DF2246000F081FEB7216C
:1033C0004DF2256000F07CFE02214DF2266000F0F7
:1033D00077FECF214DF2276000F072FE02214DF200
:1033E000286000F06DFEDE214DF2296000F068FEDD
:1033F00002214DF22A6000F063FEF2214DF22B60B3
:1034000000F05EFE02214DF22C6000F059FEFE211C
:103410004DF22D6000F054FE03214DF22E6000F0BD
:103420004FFE10214DF22F6000F04AFE03214DF2B5
:10343000306000F045FE33214DF2316000F040FE77
:1034400003214DF2326000F03BFE6D214DF23360FE
:1034500000F036FE55214FF4704000F031FEAA21F5
:103460004FF2010000F02CFE52214FF2020000F05A
:1034700027FE08214FF2030000F022FE00214FF248
:10348000040000F01DFECC214FF4314000F018FE86
:1034900000214BF2011000F013FE05214FF43640DD
:1034A00000F00EFE70214FF4374000F009FE70214D
:1034B0004BF2017000F004FE01214FF4384000F09F
:1034C000FFFD03214BF6010000F0FAFD03214BF64E
:1034D000020000F0F5FD03214BF6030000F0F0FDC3
:1034E00002214FF43C4000F0EBFD00214BF601407F
:1034F00000F0E6FD00214BF6024000F0E1FDD02196
:103500004FF4494000F0DCFD02214CF6011000F0C0
:10351000D7FD50214CF6021000F0D2FD50214CF6A0
:10352000031000F0CDFD50214CF6041000F0C8FD52
:1035300000214FF4545000F0C3FD55214FF4685062
:1035400000F0BEFD4FF4885000F0A4FD782002F09A
:10355000D3F94FF4245000F09DFD51E3FE488088DC
:1035600047F2967188427CD1112000F093FD7820BB
:1035700002F0A0F9362000F08DFD482000F07EFD1D
:103580003A2000F087FD552000F078FDF02000F093
:1035900081FDC32000F072FDF02000F07BFD96203D
:1035A00000F06CFDB42000F075FD012000F066FD18
:1035B000B62000F06FFD0A2000F060FDA22000F0B0
:1035C0005DFDB72000F066FDC62000F057FDB92074
:1035D00000F060FD022000F051FDE02000F04EFD03
:1035E000C02000F057FD802000F048FD162000F0BC
:1035F00045FDC12000F04EFD192000F03FFDC22026
:1036000000F048FDA72000F039FDC52000F042FD84
:10361000162000F033FDE82000F03CFD402000F0D3
:103620002DFD8A2000F02AFD002000F027FD00205B
:1036300000F024FD292000F021FD192000F01EFDDE
:10364000A52000F01BFD332000F018FDE02000F065
:1036500021FDF02000F012FD072000F00FFD0D20ED
:1036600000E065E000F00AFD042000F007FD052001
:1036700000F004FD142000F001FD362000F0FEFCF7
:10368000542000F0FBFC4C2000F0F8FC382000F047
:10369000F5FC132000F0F2FC142000F0EFFC2E20CB
:1036A00000F0ECFC342000F0E9FCE12000F0F2FC3A
:1036B000F02000F0E3FC102000F0E0FC142000F00B
:1036C000DDFC0E2000F0DAFC0C2000F0D7FC082016
:1036D00000F0D4FC352000F0D1FC442000F0CEFCFA
:1036E0004C2000F0CBFC262000F0C8FC102000F09D
:1036F000C5FC122000F0C2FC2C2000F0BFFC3220E0
:1037000000F0BCFCF02000F0C5FC3C2000F0B6FC52
:10371000F02000F0BFFC692000F0B0FC782002F03F
:10372000C9F8212000F0B6FC292000F0B3FC67E2C4
:103730008948808849F6060188427CD1FF2000F044
:10374000A9FCFF2000F09AFC982000F097FC0620CE
:1037500000F094FCBC2000F09DFC012000F08EFCE9
:103760000F2000F08BFC612000F088FCFF2000F0AF
:1037700085FC012000F082FC012000F07FFC0B2082
:1037800000F07CFC102000F079FC372000F076FC83
:10379000632000F073FCFF2000F070FCFF2000F0BD
:1037A0006DFC012000F06AFC012000F067FC0020A5
:1037B00000F064FC002000F061FCFF2000F05EFCE3
:1037C000522000F05BFC012000F058FC002000F0CB
:1037D00055FC402000F052FCBD2000F05BFC0120B5
:1037E00000F04CFC232000F049FC452000F046FC92
:1037F000672000F043FC012000F040FC232000F093
:103800003DFC452000F03AFC672000F037FCBE206C
:1038100000F040FC002000F031FC012000F02EFC04
:10382000AB2000F02BFC602000F028FC222000F0F0
:1038300025FC222000E025E100F020FC222000F001
:103840001DFC222000F01AFC222000F017FCC720EB
:1038500000F020FC362000F011FCED2000F01AFCF6
:103860007F2000F00BFC0F2000F008FCC02000F0CF
:1038700011FC0F2000F002FC0B2000F0FFFB0A20DF
:1038800000F0FCFBFC2000F005FC082000F0F6FB3B
:10389000DF2000F0FFFB002000F0F0FB002000F034
:1038A000EDFB002000F0EAFB002000F0E7FB002029
:1038B00000F0E4FB202000F0E1FBF32000F0EAFB45
:1038C000742000F0DBFBB42000F0E4FB002000F0EB
:1038D000D5FB002000F0D2FB002000F0CFFBF7204A
:1038E00000F0D8FB822000F0C9FBB12000F0D2FB31
:1038F000002000F0C3FB132000F0C0FB132000F0F9
:10390000BDFBF22000F0C6FB802000F0B7FB0420D6
:1039100000F0B4FB402000F0B1FB282000F0AEFB2B
:10392000C12000F0B7FB172000F0A8FB882000F0B2
:10393000A5FB882000F0A2FB202000F09FFBE020E8
:1039400000F0A8FB002000F099FB0A2000F096FB95
:10395000122000F093FB01E0E0020024102000F0B0
:103960008DFB0E2000F08AFB202000F087FBCC208E
:1039700000F084FB072000F081FB062000F07EFBB6
:103980000B2000F07BFB0E2000F078FB0F2000F0F6
:1039900075FB0D2000F072FB152000F06FFB10206E
:1039A00000F06CFB002000F069FBE12000F072FBEE
:1039B000002000F063FB0B2000F060FB132000F000
:1039C0005DFB0D2000F05AFB0E2000F057FB1B2082
:1039D00000F054FB712000F051FB062000F04EFB7C
:1039E000062000F04BFB0A2000F048FB0F2000F0FF
:1039F00045FB0E2000F042FB0F2000F03FFB15209E
:103A000000F03CFB0C2000F039FB002000F036FBFE
:103A10002A2000F03FFB002000F030FB002000F0E7
:103A20002DFB012000F02AFBDF2000F027FB2B20DC
:103A300000F030FB002000F021FB002000F01EFB16
:103A4000032000F01BFB1F2000F018FB3A2000F0C1
:103A500021FB552000F012FB362000F01BFB00205C
:103A600000F00CFB112000F015FB782001F022FF84
:103A7000292000F00FFB142001F01CFF2C2000F087
:103A800009FBBDE08848808841F663118842F8D17F
:103A9000E22000F0FFFA1D2000F0F0FA022000F012
:103AA000EDFA042000F0EAFA642001F025FFE0209E
:103AB00000F0F0FA012000F0E1FA0A2001F0FAFE2D
:103AC000E02000F0E7FA032000F0D8FA0C2001F023
:103AD000F1FE012000F0DEFA0A2001F0EBFEE62004
:103AE00000F0D8FA2F2000F0C9FAFF2000F0C6FA43
:103AF000FF2000F0C3FAB02000F0CCFA202000F044
:103B0000BDFA002000F0BAFA032000F0B7FA40F244
:103B10001F3000F0B3FA012000F0B0FA40F2DF10DD
:103B200000F0ACFA002000F0A9FAB42000F0B2FADC
:103B3000042000F0A3FA40F21F4000F09FFA00209A
:103B400000F09CFA2E2000F099FA002000F096FA7E
:103B5000002000F093FA002000F090FA002000F01E
:103B60008DFAB62000F096FA022000F087FA4FF4A2
:103B7000037000F083FA002000F080FA172000F0B4
:103B80007DFA152000F07AFA002000F077FA002084
:103B900000F074FAF02000F07DFA032000F06EFAD5
:103BA000292000F077FAD02000F074FA002000F00D
:103BB00065FABE2000F06EFA052000F05FFAFE20E4
:103BC00000F05CFA012000F059FA002000F056FAEB
:103BD000002000F053FA002000F050FAB82000F066
:103BE00059FA032000F04AFA012000F047FABA20FF
:103BF00000F050FA012000F041FA642000F066F86D
:103C00002948808849F24131884223D0264880885B
:103C100045F2103188421DD02348808845F210516A
:103C2000884217D02048808841F66311884211D01D
:103C30001D48808847F2897188420BD01A488088D5
:103C400047F29671884205D01748808849F60601E8
:103C500088421BD11548006820F00F001449C1F8B4
:103C600004010846D0F8040120F47060C1F8040192
:103C70000846D0F8040140F00500C1F804010846E8
:103C8000D0F8040140F4A060C1F804010020FDF761
:103C900073F8012220210748FCF7CAFF4FF6FF7096
:103CA000FDF746F81CBD0000E0020024044100526C
:103CB000004000520004025808B5034800880090F4
:103CC000BDF8000008BD00000000086000B5024615
:103CD000BE2000F0DFF9052000F0D0F900EE102A38
:103CE000B8EE400B9FED0B1B20EE010BBCEEC00BA2
:103CF00010EE101A88B200F0C1F9012000F0BEF9F0
:103D0000FF2000F0BBF9002000F0B8F9002000F01F
:103D1000B5F900BD6666666666660440F0B50546A0
:103D2000002400278C488079012805D18A488088A2
:103D300041F66311884208D187488079F0B98648F6
:103D4000808841F66311884218D1082D15D2DFE82A
:103D500005F00406080A0C0E101206250DE00725D2
:103D60000BE0042509E0052507E0012505E0002515
:103D700003E0032501E0022500BF00BF082D1CD28F
:103D8000DFE805F00406090C0F12151800BF14E057
:103D900044F0800411E044F040040EE044F0C0041C
:103DA0000BE044F0200408E044F0600405E044F037
:103DB000A00402E044F0E00400BF00BF6648808831
:103DC00045F21051884202D14FF4585700E036278F
:103DD0006148808849F2413188420BD05E48808832
:103DE00047F28971884205D05B48808847F2967116
:103DF000884201D144F008042146384600F060F9B9
:103E00005548808841F6631188421DD004F0200097
:103E100068B15148008850494988884214DA4E48B0
:103E2000068840884C490880084646800CE04A488D
:103E3000008849494988884206DD47480688408805
:103E400045490880084646804348808845F210511D
:103E5000884252D14049488900F01CF9002000F006
:103E60000DF93D494989491C88B200F013F9002039
:103E700000F004F938494989891C88B200F00AF930
:103E800035490988491EC1F30F2000F0F7F832497F
:103E90004989C91C88B200F0FDF82F490978491EEC
:103EA000C8B200F0EBF82C49888900F0F3F8002044
:103EB00000F0E4F828498989491C88B200F0EAF842
:103EC000002000F0DBF824498989891C88B200F0C1
:103ED000E1F821494988491EC1F30F2000F0CEF8CE
:103EE0001D498989C91C88B200F0D4F81A4989781B
:103EF000491EC8B200F0C2F82DE01749488900F009
:103F0000C9F8002000F0BAF8002000F0B7F8124914
:103F10000988491EC1F30F2000F0B0F80E49097856
:103F2000491EC8B200F0AAF80B49888900F0B2F81F
:103F3000002000F0A3F8002000F0A0F8064949880E
:103F4000491EC1F30F2000F099F803498978491EF2
:103F5000C8B200F093F8F0BDE002002410B50246AC
:103F60000C464548808841F66311884247D1424853
:103F70008079A8B940480088401E801A82B23E4924
:103F8000488900F087F8002000F078F8002000F061
:103F900075F8101200F072F8D0B200F06FF816E069
:103FA0003549488900F076F8101200F067F8D0B271
:103FB00000F064F830490988491EC1F30F2000F071
:103FC0005DF82D490978491EC8B200F057F82A4912
:103FD000888900F05FF8201200F050F8E0B200F09D
:103FE0004DF825494988491EC1F30F2000F046F8D5
:103FF00021498978491EC8B200F040F83AE01E48CD
:10400000808845F21051884220D11B49488900F030
:1040100041F8101200F032F817494989491C88B25A
:1040200000F038F8D0B200F029F81349888900F080
:1040300031F8201200F022F80F498989491C88B212
:1040400000F028F8E0B200F019F813E00A494889B6
:1040500000F020F8101200F011F8D0B200F00EF8C5
:104060000549888900F016F8201200F007F8E0B240
:1040700000F004F810BD0000E002002401B5BDF816
:1040800000000090BDF800000149088008BD000054
:104090000000086001B5BDF800000090BDF8000008
:1040A0000149088008BD0000FEFF07600248008942
:1040B0000249088070470000E0020024FEFF07600C
:1040C000024A1080921C118070470000FEFF0760BA
:1040D00018B5044606480094008B401E83B204487D
:1040E000C08A401E82B20021084600F08DF818BD3B
:1040F000F002002470B503460C4600210020364D26
:104100002D6825F08055344E356001E04D1CA9B274
:10411000314D2D6805F000551DB141F6FF75A942DE
:10412000F4DB41F6FF75A94201D1012052E02A4D8E
:1041300028352D6825F07C75274E283635603546A4
:104140002D6845EA04553560234D40352D686FF3E1
:104150000805214E4036356035462D685E1E3543D4
:104160001D4E4036356035462D6825F0FE453560DC
:1041700035462E68551E46EA0565174E40363560B1
:10418000154D2C352D6825F47065134E2C36356091
:1041900035462D68356035462D68356035462D68C5
:1041A00045F0807535600C4D2D6845F080550A4E00
:1041B000356001E04D1CA9B2074D2D6805F0005592
:1041C0001DB941F6FF75A942F4DB41F6FF75A9421E
:1041D00000D1022070BD0000004402580949487512
:1041E00030B98988074AD18211460988118308E0CD
:1041F000012806D103490988024AD18211468988DB
:1042000011837047F00200242DE9F04F04460D465B
:1042100016464FF0000CDFF8289199F81590B9F187
:10422000000F04D02046294632461F4611E028469A
:10423000DFF80C91D9F80490A9EB0609A9F1010166
:104240001A46DFF8FC90D9F80490A9EB0409A9F10B
:104250000107DFF8EC90B9F80090A2EB000A0AF130
:10426000010AA9EB0A091FFA89F8DFF8D49099F836
:104270001490DFF8D0A05AF82990DFF8C4A0DAF83B
:104280001CA0DFF8BCB0DBF800B00BFB010B0AFB95
:104290000B9EDFF8B490D9F8009049F01009DFF8D0
:1042A000A8A0CAF80090DFF8A490D9F8009029F0EF
:1042B0000109DFF898A0CAF800904FF44039CAF815
:1042C00000904FF00209CAF83490D146C9F84080F6
:1042D000C9F83CE0A7EB010909F10109A2EB000ACA
:1042E0000AF1010A49EA0A49DFF860A0CAF84490D5
:1042F000DDF82490CAF83890D146D9F8009049F0FA
:104300000109CAF8009005E00CF1010CBCF5001F92
:1043100000D308E0DFF83490D9F8049009F00209DE
:10432000B9F1000FF0D000BFDFF82090D9F8089065
:1043300049F00209DFF814A0CAF80890BDE8F08F30
:10434000F002002420000024D4440258001000523F
:104350007FB50024002500F0EBFA054605B97FBDC6
:1043600000F0E8FDEC48006840F00800EA49086009
:10437000081F006840F00200091F08600846006836
:1043800040F4F070086001200090002302462021D4
:104390000190E248FCF753FC012003210023022294
:1043A000CDE900108102DE48FCF749FC0120032121
:1043B00000230222CDE900104FF40C61D948FCF72C
:1043C0003EFC0120032100230222CDE900104FF41E
:1043D0007E41D548FCF733FC012003210023022253
:1043E000CDE9001040F2F761D048FCF728FC0E221E
:1043F0000A21CB48FCF7F4FB0E220621C948FCF742
:10440000EFFB0E220721C748FCF7EAFB0E220B2127
:10441000C448FCF7E5FB0E220921C348FCF7E0FB8A
:104420000E220A21C048FCF7DBFB0E220B21BE48FE
:10443000FCF7D6FB0E220C21BB48FCF7D1FB0E2269
:104440000D21B948FCF7CCFB0E221146B648FCF70B
:10445000C7FB0E220F21B448FCF7C2FB0E2200213D
:10446000B248FCF7BDFB0E220121B048FCF7B8FBB7
:104470000E220221AD48FCF7B3FB0E220421AB480B
:10448000FCF7AEFB0E220521A848FCF7A9FB0E2283
:104490000621A648FCF7A4FB0E220721A348FCF73F
:1044A0009FFB0E220921A148FCF79AFB0E220A214C
:1044B0009E48FCF795FB44F24230854218D14FF4F8
:1044C000F0709B4908604FF48870486001200881B3
:1044D0004881282088810820C8810520088208207A
:1044E0004882212219214FF49670FFF703FE7EE0E7
:1044F00047F28400854218D14FF448708C49086017
:104500004FF4F07048600120088148812E20888196
:104510001720C881D220088216204882092219213A
:104520004FF49670FFF7E6FD61E047F21600854212
:1045300019D14FF480607E4908604FF416704860CE
:1045400014200881032048818C2088811420C88190
:10455000A02008820C204882062219214FF4967070
:10456000FFF7C8FD43E047F21800854207D14FF43A
:10457000A0606F4908604FF44870486037E044F22B
:104580008430854219D14FF44870694908604FF46E
:10459000F0704860582088812820088230200881E7
:1045A0002020C8810D20488203204881092219213A
:1045B0004FF49670FFF79EFD19E041F21800854216
:1045C00015D14FF4A0605A4908604FF44870486014
:1045D0008C2088810A2008820881C88148820320B3
:1045E0004881062219214FF49670FFF783FD0024BD
:1045F00041F21800854201D14FF0805400BF00BF46
:1046000000BF4C4884614A484089441E484800899C
:10461000401E44EA00444748846045484089444974
:10462000C9890844441E424800894149898908448F
:10463000401E44EA00443F48C4603D4840893C492C
:10464000C98908443A4949680844441E38480089E1
:10465000374989890844364909880844401E44EA94
:10466000004434480461324840893149C9890844CA
:104670002F49496808442E49498A0844441E2C4859
:1046800000892B498989084429490988084428490F
:10469000098A0844401E44EA004426484461002038
:1046A0002449C862012000F09DF92348234908608D
:1046B00002201F49C861002007210622CDE900021F
:1046C000CDE902101D48FF2302220168002000F0FE
:1046D00039F802211648808880B2CDE900011448DB
:1046E000008883B200221146104600F08FF810486F
:1046F0000088134908800E4880884880002000F018
:104700006BF9012220210548FCF792FA4FF0FF30A7
:10471000FFF7DEFC00BF22E6E44402580004025822
:104720000014025800180258001C025800200258B9
:10473000F002002400100050000000C020000024FF
:10474000E00200242DE9F04106ACF0CC90B9DFF88E
:104750004CC0CCF8AC10CCF89420CCF8983047EA98
:10476000046CDFF83880C8F89CC046EA052CC8F80D
:10477000A0C011E0DFF824C0CCF82C11CCF8142133
:10478000CCF8183147EA046CDFF81080C8F81CC177
:1047900046EA052CC8F820C1BDE8F08100100050A1
:1047A000012913D140B9184A126842F00102164B90
:1047B000843BC3F884201DE0134A8032126842F023
:1047C0000102114B843BC3F8042113E091B940B9B5
:1047D0000D4A126822F001020B4B843BC3F884207F
:1047E00008E0094A8032126822F00102064B843B3D
:1047F000C3F80421044A843A526A42F00102024B8F
:10480000843B5A6270470000841000502DE9F04745
:1048100082460F4690461E46DDE90894BAF1000F25
:104820003ED1B8194049C968C1F30B410844050499
:104830003D48C068C0F30B403844401C28433A4907
:104840008831086008EB09003749C968C1F30A01DB
:10485000084405043448C068C0F30A004044401CC2
:1048600028433149C1F88C000CB904250AE0012C19
:1048700001D1032506E0052C01D0062C01D101252C
:1048800000E0022506FB05F0C01D06FB05F140EA2D
:1048900001402549B03108602348C0F8B4903CE09D
:1048A000B8192149C968C1F30B41084405041E48E1
:1048B000C068C0F30B403844401C28431B490860C3
:1048C00008EB09001849C968C1F30A010844050446
:1048D0001548C068C0F30A004044401C28431249F0
:1048E000C1F80C010CB904250AE0012C01D1032503
:1048F00006E0052C01D0062C01D1012500E002259F
:1049000006FB05F0C01D06FB05F140EA0140074922
:10491000283108600448C0F8349101215046FFF75F
:104920003FFFBDE8F0870000001000500811005064
:104930001CB500242548006840F4A0702349086095
:10494000012000210B460A46CDE9001040212048F5
:10495000FCF775F9012000210B460A46CDE900104D
:1049600084211C48FCF76BF9322000F0A3FF4021A2
:104970001748FCF755F9044604211648FCF750F98E
:1049800044EA4000C4B280211248FCF749F944EAE5
:104990008000C4B2062C16D2DFE804F00306090C2E
:1049A0000F1244F242301CBD47F28400FBE747F28D
:1049B0001600F8E747F21800F5E744F28430F2E712
:1049C00041F21800EFE70020EDE70000E044025854
:1049D000001802580020025801490875704700006D
:1049E000F0020024012806D10749896941F001013C
:1049F000054A916106E028B90349896921F001015E
:104A0000014A916170470000001000502DE9F0410B
:104A10000746884614461D46284600F033F8C5F17F
:104A2000040007FA00F60F20284100EA08000643B8
:104A300006F00F06E21704EBD2625211920002F167
:104A4000E022D2F800212146E31704EBD3635B1187
:104A5000A4EB431C012303FA0CF31A432046E3178B
:104A600004EBD3635B119B0003F1E023C3F8002147
:104A70000348005D40EA061001490855BDE8F08191
:104A800000E400E00146072323EA01021202054B7D
:104A900018684FF6FF031840034B18431043014BAF
:104AA000186070470CED00E00000FA054A0A520257
:104AB0000243014B1A60704708ED00E010B5002278
:104AC00001210A48FCF7B4F809A0FBF7F7FC4FF402
:104AD0007A7000F0EFFE0CA0FBF7F0FC4FF47A7058
:104AE00000F0E8FE00F0C8FB10BD00000004025812
:104AF0004D656D20416363657373204572726F72FB
:104B000021210D0A00000000536F66742052657366
:104B10006574696E672E2E2E0D0A00001CB50024E8
:104B20003F48006840F002003D49086008460068C0
:104B300040F0200008603A480C38006840F480409B
:104B400037490C3908600120032100230222CDE9F6
:104B5000001004213348FCF772F8012003210023E0
:104B60000222CDE9001040212E48FCF768F8012010
:104B7000032100230222CDE900104FF470712A486E
:104B8000FCF75DF8092202212648FCF729F80A22E1
:104B900006212448FCF724F8092206212248FCF7C4
:104BA0001FF8092207212048FCF71AF80A220821D9
:104BB0001D48FCF715F80A2209211B48FCF710F8DC
:104BC00017486438006840F480401549643908602B
:104BD0000846006820F4804008604FF6FF7200210C
:104BE000202000F001F9B0B94FF0807444F4407413
:104BF00000BF00BF44F010040C4804604FF4C01420
:104C000044F4806444F001044460006840F0010012
:104C10000649086001E001201CBD0020FCE70000FF
:104C2000E044025800040258001402580050005298
:104C30002DE9F04306460D4624484769D0F8188010
:104C4000DFF8889009F12009681E2049086127F0E3
:104C5000406747F080670846C06840F00200C860BF
:104C600008464761C0F818800EE04FF6FF72012138
:104C7000062000F0B9F804462CB999F8000006F8AF
:104C8000010B6D1E00E001E0002DEED100BFD4B994
:104C90000E48006840F004000C4908604FF6FF72AF
:104CA0000121022000F0A0F8044664B90748C0685A
:104CB00040F002000549C8604FF6FF720021202035
:104CC00000F092F804462046BDE8F0830050005200
:104CD0002DE9F043074688461546994600244FF6CD
:104CE000FF720021202000F07FF868BB00BF00BFEA
:104CF00000BFA80944EA006444EA8944C5F30110EE
:104D000044EA0034C5F3810044EA802405F003003E
:104D100044EA00243C430D48446105F00C0010B106
:104D20000A48C0F8188005F0C00068B94FF6FF7255
:104D30000121022000F058F806462EB90348C06849
:104D400040F002000149C860BDE8F0830050005205
:104D50002DE9F04306460D4622484769D0F81890E1
:104D6000DFF8808008F12008681E1E49086127F0DE
:104D7000406700BF0846C06840F00200C8600846AF
:104D800047610DE04FF6FF720121042000F02CF87E
:104D9000044604B106E016F8010B88F800006D1E09
:104DA000002DEFD100BFD4B90E48006840F00400D8
:104DB0000C4908604FF6FF720121022000F014F840
:104DC000044664B90748C06840F002000549C8605D
:104DD0004FF6FF720021202000F006F8044620461E
:104DE000BDE8F0830050005210B5034600240BE0EC
:104DF00009488068184008B1012000E000200446FE
:104E00008C4200D102E0521E002AF1D100BF0AB14B
:104E1000002010BD0120FCE70050005210B5002317
:104E2000234C236000BF00BF00BFBFF34F8F00BF04
:104E300000BF00BF231F1868C0F34E3100BFC0F38E
:104E4000C90200BF43F6E07303EA41134FF0404448
:104E500004EA82742343174C236000BF00BF131E73
:104E6000A2F10102EED10B1EA1F10101E7D100BFB9
:104E700000BF00BFBFF34F8F00BF00BF00BF0C4B90
:104E8000703B1B6843F48033094C703C236000BFC7
:104E900000BF00BFBFF34F8F00BF00BF00BF00BF08
:104EA00000BF00BFBFF36F8F00BF00BF00BF10BDCA
:104EB00084ED00E060EF00E000BF00BF00BFBFF383
:104EC0004F8F00BF00BF00BF00BF00BF00BFBFF3D8
:104ED0006F8F00BF00BF00BF00201449086000BFF3
:104EE00000BF00BFBFF34F8F00BF00BF00BF00BFB8
:104EF00000BF00BFBFF36F8F00BF00BF00BF0C48F3
:104F0000006840F400300A49086000BF00BF00BFDD
:104F1000BFF34F8F00BF00BF00BF00BF00BF00BF87
:104F2000BFF36F8F00BF00BF00BF704750EF00E0BE
:104F300014ED00E010B500240E48006820F4C070A5
:104F40000D49C1F840010846D0F8400140F4807096
:104F5000C1F8400144F0030400BF44F0200400BF46
:104F600044F40074234600220421104600F006F8A1
:104F700010BD00004041005200400052F0B5044610
:104F80000D46002600212943C4F104070120B84042
:104F9000014341EA421141EA43210948016005E029
:104FA000761CB6F5001F01D30120F0BD044808307F
:104FB000006800F020000028F2D100BFF5E70000F3
:104FC000504100522DE9F04104460D4616461F4659
:104FD0000120134908600020114910310860104970
:104FE00018310860091D0860091D08600C49283146
:104FF0000860091D08600A496031086001200949FC
:105000000860FBF7DFFD3B4632462946204600F0AC
:1050100013F800214FF00060FFF748FDBDE8F08174
:10502000004402580881005110B503F037FC0128F4
:1050300001D003F03DFA10BDF0B504460D46002145
:105040000020894E366826F00406874F3E60864E63
:105050000C36366846F44046834F0C373E6000BF3E
:10506000814E0C36366806F40056002EF8D07F4E7E
:10507000366846F480367D4F3E6001E04E1CB1B28A
:105080007A4E366806F400361EB947F6FF76B1420E
:10509000F4DB47F6FF76B14201D10120E2E0734E26
:1050A0002836366846F00206704F28373E603E4686
:1050B000366846EA05163E606C4E30363668671E26
:1050C0003E436A4F30373E603E463768561E47EAD9
:1050D0004626664F30373E603E4637685E1E47EADA
:1050E0000646624F30373E603E46366846F0807670
:1050F0003E603E1F366846F008063F1F3E603E4653
:1051000036683E603E46366846F440363E60574E4E
:10511000366846F08076554F3E6000BF534E366885
:1051200006F00076002EF9D0504E2836366846F448
:10513000C8364E4F28373E604C4E3836366840F2FF
:10514000B7173E43494F38373E603E46366846F40F
:1051500000763E603E46366846F080763E60434EBE
:105160002C363668414F2C373E603E4636683E60EE
:105170003E46366846F400263E603E46366846F4B3
:1051800000163E60394E4C36366826F00306374F1F
:105190004C373E603E46366846F002063E60334E6F
:1051A000366846F08066314F3E6000BF2F4E36684D
:1051B00006F00066002EF9D02C4E1836366846F000
:1051C00008062A4F18373E603E4636683E60274E36
:1051D0001036366846F00306244F10373E6007E06D
:1051E000224E10363668C6F3C201032900D100E012
:1051F000F6E700BF1E4E366846F002061C4F3E60C2
:105200003E46366846F020063E60184E1836366830
:1052100046F04006154F18373E603E1D366846F092
:1052200040063F1D3E603E46366846F480663E605E
:105230003E1D366846F040063F1D3E600B4E366808
:1052400046F08006094F3E60084EF436366846F058
:105250000206064FF4373E60064E366846F00106F9
:10526000044F3E60F0BD00000C4802580044025854
:10527000002000522004005801480249086070478D
:105280000400FA050CED00E010B50C48006800F0D1
:10529000010058B10A4908698047002007491431C4
:1052A00008604FF47A7005491C31086003480068B3
:1052B00020F001000149086010BD00001008004006
:1052C000A800002470B50446002500264248015D70
:1052D00042A0FBF7F3F840480A30015D44A0FBF719
:1052E000EDF83D48801C015B47A0FBF7E7F84BA1B8
:1052F000204600F033FA4BA1204600F02FFA4BA1D4
:10530000204600F02BFA3448015D34A0FBF7D6F8B4
:1053100031480A30015D36A0FBF7D0F82E48801CDA
:10532000015B39A0FBF7CAF800BF1BE042F229502D
:10533000684304EB400000F5804090F8500A50B1FB
:10534000701CC6B242F22950684304EB4002294661
:1053500038A0FBF7B3F82048005DB04200D103E06D
:10536000681CC5B2142DE1DB00BF2EA1204600F061
:10537000E7FA1948015D19A0FBF7A0F816480A30B2
:10538000015D1BA0FBF79AF81348801C015B1EA06F
:10539000FBF794F800251BE042F22950684304EB28
:1053A000400000F5804090F8500A50B1701CC6B221
:1053B00042F22950684304EB400229461DA0FBF746
:1053C0007DF80548005DB04200D103E0681CC5B21D
:1053D000142DE1DB00BF70BD68CE0500B5B1C7B0CC
:1053E000C0E0B1F0B8F6CAFD202564200D0A000027
:1053F000CAA3D3E0D6D6C0E0BFD5BCE4B8F6CAFD98
:10540000202564200D0A0000D4AAC6F7BCFED7DC14
:10541000CAFD202564200D0A00000000B5E7C8DDA4
:1054200000000000B5E7D7E800000000B5E7B8D0FD
:1054300000000000CEBBD6C320256420D6D6C0E035
:10544000C3FBB3C63A202573200D0A0070B505468C
:105450000C461048006840F004000E4908600E48F1
:105460000560001F04800C482038006840F00100EF
:1054700009492039086008482C38008840F00100AC
:1054800005492C39088002231E2203210846FFF714
:10549000BDFA70BDE84402582C0800401F49C96994
:1054A00001F0200109B31D49898CC8B21C49098843
:1054B00001F40041C9B91A49098801F4804161B178
:1054C0000A2803D00021164A118020E014490988D7
:1054D00041F40041124A118019E00D2806D110490B
:1054E000098841F480410E4A118010E00C49098876
:1054F000C1F30D010B4A505409490988491C084A57
:10550000118011460988C72901DD00211180034956
:10551000096A41F00801014A116270470010014018
:10552000100000241802002410B500F0CFF800F09D
:10553000C3F8002303221946C720FFF7C9FB00F078
:10554000BBF810BD10B50446240300F0BFF800F00E
:10555000B3F800233F2221462020FFF7B9FB00F0DB
:10556000ABF810BD08B5FFF7D9FA00F03BF800F032
:1055700055F814490880084600884EF6187188428C
:105580001ED1032000F06AF800909DF8000000F0A2
:10559000010038B900F09AF8002303221946B72019
:1055A000FFF796FB00F092F80023C3221946C020B3
:1055B000FFF78EFB3020009001216846FFF7C8FB03
:1055C00008BD00002800002410B50023032219465E
:1055D000FF20FFF77DFB00200149087010BD00008F
:1055E0002A00002410B5022000F038F8044604F028
:1055F000020038B900F06AF844F0020421460220A3
:1056000000F078F80023012219463820FFF760FBEC
:1056100001200149087010BD2A00002438B50E4849
:10562000007830B10023EF2219469020FFF750FB9D
:1056300005E00023652219469020FFF749FB02216F
:105640006846FFF7F5FA9DF801009DF8001040EA62
:105650000124204638BD00002A00002438B5044645
:10566000002000900025012C04D0022C04D0032C33
:1056700006D103E0052505E0352503E0152501E009
:10568000052500BF00BF0B48007830B10023C322BE
:1056900019462846FFF71CFB05E000234122194666
:1056A0002846FFF715FB01216846FFF7C1FA9DF870
:1056B000000038BD2A00002410B500BF0120FFF70C
:1056C000CDFF00F001000028F8D110BD10B508484A
:1056D000007830B10023032219460620FFF7F8FABC
:1056E00005E00023012219460620FFF7F1FA10BD5C
:1056F0002A00002473B504460025012C04D0022C96
:1057000004D0032C06D103E0012505E0312503E098
:10571000112501E0012500BF00BF0A48007830B123
:105720000023C32219462846FFF7D2FA05E00023DA
:10573000412219462846FFF7CBFA012101A8FFF7BD
:1057400007FB7CBD2A00002430380A2801D2012042
:1057500070470020704700BF7047000070B50446D6
:105760000E462748005D142805DB26A0FAF7A6FEA2
:105770004FF0FF3070BD3146204600F05DF9401C0F
:1057800010B127A0FAF79AFE204600F035F9054639
:10579000681C28B928A0FAF791FE4FF0FF30E9E71E
:1057A00042F22951694304EB410013223146FBF7D1
:1057B000A3F8012142F22950684304EB400000F5B0
:1057C000804080F8501A642142F22950684304EB6B
:1057D000400000F5804080F8511A0948005D401CE7
:1057E000C1B207480155005DC0F11400C1B20448C0
:1057F0000A300155314618A0FAF760FE2846B9E78D
:1058000068CE0500B4EDCEF3A3BAC0E0B1F0CAFD96
:10581000C1BFB4EFB5BDC9CFCFDEA3A1200D0A0033
:10582000B4EDCEF3A3BAD2D1D3D0B8C3C0E0B1F0B7
:10583000A3A1200D0A000000B4EDCEF3A3BAC3BBB0
:10584000D3D0BFC9D3C3B5C4C0E0B1F0BFD5BCE4A9
:10585000A3A1200D0A000000B3C9B9A6CCEDBCD3AA
:10586000C0E0B1F0A3BA2573200D0A004FF0E0228A
:10587000126942F004024FF0E0231A610B4A1080D3
:1058800001464FF47A7251430122094B1A804FF0BE
:10589000E022126942F002024FF0E0231A611A4638
:1058A0005161126942F001021A6170470800002438
:1058B0000A00002470B5044602F0F0FF012811D060
:1058C0000C480088844206DB0A48008894FBF0F507
:1058D000284602F057FB0748008894FBF0F100FBD4
:1058E000114084B24FF47A7104FB01F000F004F827
:1058F00070BD00000A00002470B5034600224FF07E
:10590000E02675690D4E368803FB06F44FF0E0265D
:10591000B16910E04FF0E026B06988420BD08842B0
:1059200002D20E1A324402E02E1A0E4432440146CC
:10593000A24200D300E0EDE700BF70BD08000024E4
:1059400070B504460E463146204600F075F805460F
:10595000681C30B931461AA0FAF7B0FD4FF0FF309D
:1059600070BD1E48005D401EC1B21C480155801C20
:10597000015B42F22950684304EB400000F580408F
:1059800090F84C0A081A81B21448801C0153002177
:1059900042F22950684304EB400000F5804080F853
:1059A000501A0E48005DC0F11400C1B20B480A3015
:1059B000015531460AA0FAF781FD0120D0E7000029
:1059C000B4EDCEF3A3BAC0E0B1F0A3BA257320B210
:1059D000BBB4E6D4DA200D0A0000000068CE050052
:1059E000C9BEB3FDC0E0B1F0A3BA257320B3C9B9F5
:1059F000A6200D0A000000000246002100BF0DE0B5
:105A000042F22950484302EB400000F5804090F8F4
:105A1000500A08B908467047481CC1B20548805C66
:105A20008842EDDC142901DA0846F4E74FF0FF3034
:105A3000F1E7000068CE050070B505460E4600246B
:105A400000BF0CE042F22951614305EB41003146B1
:105A5000FAF77EFF08B9204670BD601CC4B2142C52
:105A6000F0DB4FF0FF30F7E700BF054AD26902F0E4
:105A70004002002AF9D0C2B2014B1A8570470000DB
:105A8000001001401CB5042302220521A020FFF7CD
:105A900099FA4FF4C870FFF7E9FE4FF4E131642042
:105AA00000F086FFFBF730FAFFF75CFD0D48FBF7CF
:105AB00035F90C48FFF706FC4FF478400A490860B6
:105AC0000A48012100238022CDE9001008A10B48DB
:105AD00002F0C8FE0AA0FAF7F1FC02F09FFB0020DA
